{
  "abi": [
    {
      "inputs": [
        {
          "internalType": "contract IERC20",
          "name": "_token",
          "type": "address"
        },
        {
          "internalType": "contract IERC1155",
          "name": "_nft",
          "type": "address"
        }
      ],
      "stateMutability": "nonpayable",
      "type": "constructor"
    },
    {
      "inputs": [
        {
          "internalType": "address",
          "name": "_staker",
          "type": "address"
        }
      ],
      "name": "availableRewards",
      "outputs": [
        {
          "internalType": "uint256",
          "name": "",
          "type": "uint256"
        }
      ],
      "stateMutability": "view",
      "type": "function"
    },
    {
      "inputs": [
        {
          "internalType": "address",
          "name": "_staker",
          "type": "address"
        }
      ],
      "name": "calculateRewards",
      "outputs": [
        {
          "internalType": "uint256",
          "name": "",
          "type": "uint256"
        }
      ],
      "stateMutability": "view",
      "type": "function"
    },
    {
      "inputs": [],
      "name": "claimRewards",
      "outputs": [],
      "stateMutability": "nonpayable",
      "type": "function"
    },
    {
      "inputs": [
        {
          "internalType": "address",
          "name": "_staker",
          "type": "address"
        }
      ],
      "name": "getStakeTokens",
      "outputs": [
        {
          "components": [
            {
              "internalType": "address",
              "name": "staker",
              "type": "address"
            },
            {
              "internalType": "uint256",
              "name": "tokenId",
              "type": "uint256"
            }
          ],
          "internalType": "struct NFTStack.StakedToken[]",
          "name": "",
          "type": "tuple[]"
        }
      ],
      "stateMutability": "view",
      "type": "function"
    },
    {
      "inputs": [
        {
          "internalType": "uint256",
          "name": "_tokenId",
          "type": "uint256"
        }
      ],
      "name": "getStakerAddress",
      "outputs": [
        {
          "internalType": "address",
          "name": "",
          "type": "address"
        }
      ],
      "stateMutability": "view",
      "type": "function"
    },
    {
      "inputs": [
        {
          "internalType": "address",
          "name": "_staker",
          "type": "address"
        }
      ],
      "name": "getStakerAmountStaked",
      "outputs": [
        {
          "internalType": "uint256",
          "name": "",
          "type": "uint256"
        }
      ],
      "stateMutability": "view",
      "type": "function"
    },
    {
      "inputs": [
        {
          "internalType": "address",
          "name": "_staker",
          "type": "address"
        }
      ],
      "name": "getStakerInfo",
      "outputs": [
        {
          "components": [
            {
              "internalType": "uint256",
              "name": "amountStaked",
              "type": "uint256"
            },
            {
              "components": [
                {
                  "internalType": "address",
                  "name": "staker",
                  "type": "address"
                },
                {
                  "internalType": "uint256",
                  "name": "tokenId",
                  "type": "uint256"
                }
              ],
              "internalType": "struct NFTStack.StakedToken[]",
              "name": "stakedTokens",
              "type": "tuple[]"
            },
            {
              "internalType": "uint256",
              "name": "timeOfLastUpdate",
              "type": "uint256"
            },
            {
              "internalType": "uint256",
              "name": "unclaimReawrds",
              "type": "uint256"
            }
          ],
          "internalType": "struct NFTStack.Staker",
          "name": "",
          "type": "tuple"
        }
      ],
      "stateMutability": "view",
      "type": "function"
    },
    {
      "inputs": [
        {
          "internalType": "address",
          "name": "_staker",
          "type": "address"
        }
      ],
      "name": "getStakerTimeOfLastUpdate",
      "outputs": [
        {
          "internalType": "uint256",
          "name": "",
          "type": "uint256"
        }
      ],
      "stateMutability": "view",
      "type": "function"
    },
    {
      "inputs": [
        {
          "internalType": "address",
          "name": "_staker",
          "type": "address"
        }
      ],
      "name": "getStakerUnclaimRewards",
      "outputs": [
        {
          "internalType": "uint256",
          "name": "",
          "type": "uint256"
        }
      ],
      "stateMutability": "view",
      "type": "function"
    },
    {
      "inputs": [],
      "name": "nftCollection",
      "outputs": [
        {
          "internalType": "contract IERC1155",
          "name": "",
          "type": "address"
        }
      ],
      "stateMutability": "view",
      "type": "function"
    },
    {
      "inputs": [],
      "name": "rewardsPerHour",
      "outputs": [
        {
          "internalType": "uint256",
          "name": "",
          "type": "uint256"
        }
      ],
      "stateMutability": "view",
      "type": "function"
    },
    {
      "inputs": [],
      "name": "rewardsToken",
      "outputs": [
        {
          "internalType": "contract IERC20",
          "name": "",
          "type": "address"
        }
      ],
      "stateMutability": "view",
      "type": "function"
    },
    {
      "inputs": [
        {
          "internalType": "uint256",
          "name": "_rewardsPerHour",
          "type": "uint256"
        }
      ],
      "name": "setRewardsPerHour",
      "outputs": [],
      "stateMutability": "nonpayable",
      "type": "function"
    },
    {
      "inputs": [
        {
          "internalType": "uint256",
          "name": "_tokenId",
          "type": "uint256"
        }
      ],
      "name": "stake",
      "outputs": [],
      "stateMutability": "nonpayable",
      "type": "function"
    },
    {
      "inputs": [
        {
          "internalType": "uint256",
          "name": "",
          "type": "uint256"
        }
      ],
      "name": "stakerAddress",
      "outputs": [
        {
          "internalType": "address",
          "name": "",
          "type": "address"
        }
      ],
      "stateMutability": "view",
      "type": "function"
    },
    {
      "inputs": [
        {
          "internalType": "address",
          "name": "",
          "type": "address"
        }
      ],
      "name": "stakers",
      "outputs": [
        {
          "internalType": "uint256",
          "name": "amountStaked",
          "type": "uint256"
        },
        {
          "internalType": "uint256",
          "name": "timeOfLastUpdate",
          "type": "uint256"
        },
        {
          "internalType": "uint256",
          "name": "unclaimReawrds",
          "type": "uint256"
        }
      ],
      "stateMutability": "view",
      "type": "function"
    },
    {
      "inputs": [
        {
          "internalType": "uint256",
          "name": "_tokenId",
          "type": "uint256"
        }
      ],
      "name": "unstake",
      "outputs": [],
      "stateMutability": "nonpayable",
      "type": "function"
    }
  ],
  "devdoc": {
    "kind": "dev",
    "methods": {},
    "version": 1
  },
  "evm": {
    "assembly": "    /* \"NFTStaking.sol\":506:5382  contract NFTStack is ReentrancyGuard {... */\n  mstore(0x40, 0xc0)\n    /* \"NFTStaking.sol\":1152:1158  100000 */\n  0x0186a0\n    /* \"NFTStaking.sol\":1120:1158  uint256 public rewardsPerHour = 100000 */\n  0x01\n  sstore\n    /* \"NFTStaking.sol\":685:842  constructor(... */\n  callvalue\n  dup1\n  iszero\n  tag_1\n  jumpi\n  0x00\n  dup1\n  revert\ntag_1:\n  pop\n  mload(0x40)\n  sub(codesize, bytecodeSize)\n  dup1\n  bytecodeSize\n  dup4\n  codecopy\n  dup2\n  add\n  0x40\n  dup2\n  swap1\n  mstore\n  tag_2\n  swap2\n  tag_3\n  jump\t// in\ntag_2:\n    /* \"@openzeppelin/contracts/security/ReentrancyGuard.sol\":1716:1717   */\n  0x01\n    /* \"@openzeppelin/contracts/security/ReentrancyGuard.sol\":1821:1828   */\n  0x00\n    /* \"@openzeppelin/contracts/security/ReentrancyGuard.sol\":1821:1843   */\n  sstore\n  sub(shl(0xa0, 0x01), 0x01)\n    /* \"NFTStaking.sol\":772:793  rewardsToken = _token */\n  swap2\n  dup3\n  and\n  0x80\n  mstore\n    /* \"NFTStaking.sol\":804:824  nftCollection = _nft */\n  and\n  0xa0\n  mstore\n    /* \"NFTStaking.sol\":506:5382  contract NFTStack is ReentrancyGuard {... */\n  jump(tag_10)\n    /* \"#utility.yul\":14:153   */\ntag_9:\n  sub(shl(0xa0, 0x01), 0x01)\n    /* \"#utility.yul\":97:128   */\n  dup2\n  and\n    /* \"#utility.yul\":87:129   */\n  dup2\n  eq\n    /* \"#utility.yul\":77:147   */\n  tag_12\n  jumpi\n    /* \"#utility.yul\":143:144   */\n  0x00\n    /* \"#utility.yul\":140:141   */\n  dup1\n    /* \"#utility.yul\":133:145   */\n  revert\n    /* \"#utility.yul\":77:147   */\ntag_12:\n    /* \"#utility.yul\":14:153   */\n  pop\n  jump\t// out\n    /* \"#utility.yul\":158:589   */\ntag_3:\n    /* \"#utility.yul\":267:273   */\n  0x00\n    /* \"#utility.yul\":275:281   */\n  dup1\n    /* \"#utility.yul\":328:330   */\n  0x40\n    /* \"#utility.yul\":316:325   */\n  dup4\n    /* \"#utility.yul\":307:314   */\n  dup6\n    /* \"#utility.yul\":303:326   */\n  sub\n    /* \"#utility.yul\":299:331   */\n  slt\n    /* \"#utility.yul\":296:348   */\n  iszero\n  tag_14\n  jumpi\n    /* \"#utility.yul\":344:345   */\n  0x00\n    /* \"#utility.yul\":341:342   */\n  dup1\n    /* \"#utility.yul\":334:346   */\n  revert\n    /* \"#utility.yul\":296:348   */\ntag_14:\n    /* \"#utility.yul\":376:385   */\n  dup3\n    /* \"#utility.yul\":370:386   */\n  mload\n    /* \"#utility.yul\":395:434   */\n  tag_15\n    /* \"#utility.yul\":428:433   */\n  dup2\n    /* \"#utility.yul\":395:434   */\n  tag_9\n  jump\t// in\ntag_15:\n    /* \"#utility.yul\":503:505   */\n  0x20\n    /* \"#utility.yul\":488:506   */\n  dup5\n  add\n    /* \"#utility.yul\":482:507   */\n  mload\n    /* \"#utility.yul\":453:458   */\n  swap1\n  swap3\n  pop\n    /* \"#utility.yul\":516:557   */\n  tag_16\n    /* \"#utility.yul\":482:507   */\n  dup2\n    /* \"#utility.yul\":516:557   */\n  tag_9\n  jump\t// in\ntag_16:\n    /* \"#utility.yul\":576:583   */\n  dup1\n    /* \"#utility.yul\":566:583   */\n  swap2\n  pop\n  pop\n    /* \"#utility.yul\":158:589   */\n  swap3\n  pop\n  swap3\n  swap1\n  pop\n  jump\t// out\ntag_10:\n    /* \"NFTStaking.sol\":506:5382  contract NFTStack is ReentrancyGuard {... */\n  mload(0x80)\n  mload(0xa0)\n  codecopy(0x00, dataOffset(sub_0), dataSize(sub_0))\n  0x00\n  assignImmutable(\"0x8e8fab5f003314da8d1873ea7720e8d9f47650136d916064d1edb8a11d682624\")\n  0x00\n  assignImmutable(\"0x5c4c6aa067b6f8e6cb38e6ab843832a94d1712d661a04d73c517d6a1931a9e5d\")\n  return(0x00, dataSize(sub_0))\nstop\n\nsub_0: assembly {\n        /* \"NFTStaking.sol\":506:5382  contract NFTStack is ReentrancyGuard {... */\n      mstore(0x40, 0x80)\n      callvalue\n      dup1\n      iszero\n      tag_1\n      jumpi\n      0x00\n      dup1\n      revert\n    tag_1:\n      pop\n      jumpi(tag_2, lt(calldatasize, 0x04))\n      shr(0xe0, calldataload(0x00))\n      dup1\n      0x9168ae72\n      gt\n      tag_20\n      jumpi\n      dup1\n      0xa694fc3a\n      gt\n      tag_21\n      jumpi\n      dup1\n      0xca11a379\n      gt\n      tag_22\n      jumpi\n      dup1\n      0xca11a379\n      eq\n      tag_17\n      jumpi\n      dup1\n      0xd1af0c7d\n      eq\n      tag_18\n      jumpi\n      dup1\n      0xf854a27f\n      eq\n      tag_19\n      jumpi\n      0x00\n      dup1\n      revert\n    tag_22:\n      dup1\n      0xa694fc3a\n      eq\n      tag_15\n      jumpi\n      dup1\n      0xb5a5e509\n      eq\n      tag_16\n      jumpi\n      0x00\n      dup1\n      revert\n    tag_21:\n      dup1\n      0x9168ae72\n      eq\n      tag_11\n      jumpi\n      dup1\n      0x9262c4d0\n      eq\n      tag_12\n      jumpi\n      dup1\n      0x94067045\n      eq\n      tag_13\n      jumpi\n      dup1\n      0xa466bc03\n      eq\n      tag_14\n      jumpi\n      0x00\n      dup1\n      revert\n    tag_20:\n      dup1\n      0x64ab8675\n      gt\n      tag_23\n      jumpi\n      dup1\n      0x64ab8675\n      eq\n      tag_7\n      jumpi\n      dup1\n      0x6588103b\n      eq\n      tag_8\n      jumpi\n      dup1\n      0x733bdef0\n      eq\n      tag_9\n      jumpi\n      dup1\n      0x8e7271fa\n      eq\n      tag_10\n      jumpi\n      0x00\n      dup1\n      revert\n    tag_23:\n      dup1\n      0x2c616319\n      eq\n      tag_3\n      jumpi\n      dup1\n      0x2e17de78\n      eq\n      tag_4\n      jumpi\n      dup1\n      0x372500ab\n      eq\n      tag_5\n      jumpi\n      dup1\n      0x62a82d7d\n      eq\n      tag_6\n      jumpi\n    tag_2:\n      0x00\n      dup1\n      revert\n        /* \"NFTStaking.sol\":4927:5065  function getStakerAmountStaked(address _staker) external view returns(uint256) {... */\n    tag_3:\n      tag_24\n      tag_25\n      calldatasize\n      0x04\n      tag_26\n      jump\t// in\n    tag_25:\n      sub(shl(0xa0, 0x01), 0x01)\n        /* \"NFTStaking.sol\":5026:5042  stakers[_staker] */\n      and\n        /* \"NFTStaking.sol\":4997:5004  uint256 */\n      0x00\n        /* \"NFTStaking.sol\":5026:5042  stakers[_staker] */\n      swap1\n      dup2\n      mstore\n        /* \"NFTStaking.sol\":5026:5033  stakers */\n      0x02\n        /* \"NFTStaking.sol\":5026:5042  stakers[_staker] */\n      0x20\n      mstore\n      0x40\n      swap1\n      keccak256\n        /* \"NFTStaking.sol\":5026:5055  stakers[_staker].amountStaked */\n      sload\n      swap1\n        /* \"NFTStaking.sol\":4927:5065  function getStakerAmountStaked(address _staker) external view returns(uint256) {... */\n      jump\n    tag_24:\n      mload(0x40)\n        /* \"#utility.yul\":474:499   */\n      swap1\n      dup2\n      mstore\n        /* \"#utility.yul\":462:464   */\n      0x20\n        /* \"#utility.yul\":447:465   */\n      add\n        /* \"NFTStaking.sol\":4927:5065  function getStakerAmountStaked(address _staker) external view returns(uint256) {... */\n    tag_28:\n      mload(0x40)\n      dup1\n      swap2\n      sub\n      swap1\n      return\n        /* \"NFTStaking.sol\":1897:2841  function unstake (uint256 _tokenId) external nonReentrant {... */\n    tag_4:\n      tag_30\n      tag_31\n      calldatasize\n      0x04\n      tag_32\n      jump\t// in\n    tag_31:\n      tag_33\n      jump\t// in\n    tag_30:\n      stop\n        /* \"NFTStaking.sol\":2859:3268  function claimRewards() external nonReentrant {... */\n    tag_5:\n      tag_30\n      tag_35\n      jump\t// in\n        /* \"NFTStaking.sol\":4656:4784  function getStakerAddress(uint256 _tokenId) external view returns(address) {... */\n    tag_6:\n      tag_36\n      tag_37\n      calldatasize\n      0x04\n      tag_32\n      jump\t// in\n    tag_37:\n        /* \"NFTStaking.sol\":4722:4729  address */\n      0x00\n        /* \"NFTStaking.sol\":4751:4774  stakerAddress[_tokenId] */\n      swap1\n      dup2\n      mstore\n        /* \"NFTStaking.sol\":4751:4764  stakerAddress */\n      0x03\n        /* \"NFTStaking.sol\":4751:4774  stakerAddress[_tokenId] */\n      0x20\n      mstore\n      0x40\n      swap1\n      keccak256\n      sload\n      sub(shl(0xa0, 0x01), 0x01)\n      and\n      swap1\n        /* \"NFTStaking.sol\":4656:4784  function getStakerAddress(uint256 _tokenId) external view returns(address) {... */\n      jump\n    tag_36:\n      mload(0x40)\n      sub(shl(0xa0, 0x01), 0x01)\n        /* \"#utility.yul\":859:914   */\n      swap1\n      swap2\n      and\n        /* \"#utility.yul\":841:915   */\n      dup2\n      mstore\n        /* \"#utility.yul\":829:831   */\n      0x20\n        /* \"#utility.yul\":814:832   */\n      add\n        /* \"NFTStaking.sol\":4656:4784  function getStakerAddress(uint256 _tokenId) external view returns(address) {... */\n      tag_28\n        /* \"#utility.yul\":695:921   */\n      jump\n        /* \"NFTStaking.sol\":3286:3597  function calculateRewards(address _staker) public view returns(uint256) {... */\n    tag_7:\n      tag_24\n      tag_42\n      calldatasize\n      0x04\n      tag_26\n      jump\t// in\n    tag_42:\n      tag_43\n      jump\t// in\n        /* \"NFTStaking.sol\":634:673  IERC1155 public immutable nftCollection */\n    tag_8:\n      tag_36\n      immutable(\"0x8e8fab5f003314da8d1873ea7720e8d9f47650136d916064d1edb8a11d682624\")\n      dup2\n      jump\n        /* \"NFTStaking.sol\":4794:4917  function getStakerInfo(address _staker) external view returns(Staker memory) {... */\n    tag_9:\n      tag_49\n      tag_50\n      calldatasize\n      0x04\n      tag_26\n      jump\t// in\n    tag_50:\n      tag_51\n      jump\t// in\n    tag_49:\n      mload(0x40)\n      tag_28\n      swap2\n      swap1\n      tag_53\n      jump\t// in\n        /* \"NFTStaking.sol\":1120:1158  uint256 public rewardsPerHour = 100000 */\n    tag_10:\n      tag_24\n      sload(0x01)\n      dup2\n      jump\n        /* \"NFTStaking.sol\":1169:1210  mapping(address => Staker) public stakers */\n    tag_11:\n      tag_57\n      tag_58\n      calldatasize\n      0x04\n      tag_26\n      jump\t// in\n    tag_58:\n      0x02\n      0x20\n      dup2\n      swap1\n      mstore\n      0x00\n      swap2\n      dup3\n      mstore\n      0x40\n      swap1\n      swap2\n      keccak256\n      dup1\n      sload\n      swap2\n      dup2\n      add\n      sload\n      0x03\n      swap1\n      swap2\n      add\n      sload\n      dup4\n      jump\n    tag_57:\n      0x40\n      dup1\n      mload\n        /* \"#utility.yul\":2560:2585   */\n      swap4\n      dup5\n      mstore\n        /* \"#utility.yul\":2616:2618   */\n      0x20\n        /* \"#utility.yul\":2601:2619   */\n      dup5\n      add\n        /* \"#utility.yul\":2594:2628   */\n      swap3\n      swap1\n      swap3\n      mstore\n        /* \"#utility.yul\":2644:2662   */\n      swap1\n      dup3\n      add\n        /* \"#utility.yul\":2637:2671   */\n      mstore\n        /* \"#utility.yul\":2548:2550   */\n      0x60\n        /* \"#utility.yul\":2533:2551   */\n      add\n        /* \"NFTStaking.sol\":1169:1210  mapping(address => Staker) public stakers */\n      tag_28\n        /* \"#utility.yul\":2358:2677   */\n      jump\n        /* \"NFTStaking.sol\":5075:5217  function getStakerUnclaimRewards(address _staker) external view returns(uint256) {... */\n    tag_12:\n      tag_24\n      tag_63\n      calldatasize\n      0x04\n      tag_26\n      jump\t// in\n    tag_63:\n      sub(shl(0xa0, 0x01), 0x01)\n        /* \"NFTStaking.sol\":5176:5192  stakers[_staker] */\n      and\n        /* \"NFTStaking.sol\":5147:5154  uint256 */\n      0x00\n        /* \"NFTStaking.sol\":5176:5192  stakers[_staker] */\n      swap1\n      dup2\n      mstore\n        /* \"NFTStaking.sol\":5176:5183  stakers */\n      0x02\n        /* \"NFTStaking.sol\":5176:5192  stakers[_staker] */\n      0x20\n      mstore\n      0x40\n      swap1\n      keccak256\n        /* \"NFTStaking.sol\":5176:5207  stakers[_staker].unclaimReawrds */\n      0x03\n      add\n      sload\n      swap1\n        /* \"NFTStaking.sol\":5075:5217  function getStakerUnclaimRewards(address _staker) external view returns(uint256) {... */\n      jump\n        /* \"NFTStaking.sol\":1221:1269  mapping(uint256 => address) public stakerAddress */\n    tag_13:\n      tag_36\n      tag_67\n      calldatasize\n      0x04\n      tag_32\n      jump\t// in\n    tag_67:\n      mstore(0x20, 0x03)\n      0x00\n      swap1\n      dup2\n      mstore\n      0x40\n      swap1\n      keccak256\n      sload\n      sub(shl(0xa0, 0x01), 0x01)\n      and\n      dup2\n      jump\n        /* \"NFTStaking.sol\":3942:4644  function getStakeTokens(address _staker) public view returns(StakedToken[] memory) {... */\n    tag_14:\n      tag_70\n      tag_71\n      calldatasize\n      0x04\n      tag_26\n      jump\t// in\n    tag_71:\n      tag_72\n      jump\t// in\n    tag_70:\n      mload(0x40)\n      tag_28\n      swap2\n      swap1\n      tag_74\n      jump\t// in\n        /* \"NFTStaking.sol\":1284:1879  function stake (uint256 _tokenId) external nonReentrant {... */\n    tag_15:\n      tag_30\n      tag_76\n      calldatasize\n      0x04\n      tag_32\n      jump\t// in\n    tag_76:\n      tag_77\n      jump\t// in\n        /* \"NFTStaking.sol\":3816:3932  function setRewardsPerHour(uint256 _rewardsPerHour) external {... */\n    tag_16:\n      tag_30\n      tag_79\n      calldatasize\n      0x04\n      tag_32\n      jump\t// in\n    tag_79:\n        /* \"NFTStaking.sol\":3890:3904  rewardsPerHour */\n      0x01\n        /* \"NFTStaking.sol\":3890:3922  rewardsPerHour = _rewardsPerHour */\n      sstore\n        /* \"NFTStaking.sol\":3816:3932  function setRewardsPerHour(uint256 _rewardsPerHour) external {... */\n      jump\n        /* \"NFTStaking.sol\":5227:5373  function getStakerTimeOfLastUpdate(address _staker) external view returns(uint256) {... */\n    tag_17:\n      tag_24\n      tag_82\n      calldatasize\n      0x04\n      tag_26\n      jump\t// in\n    tag_82:\n      sub(shl(0xa0, 0x01), 0x01)\n        /* \"NFTStaking.sol\":5330:5346  stakers[_staker] */\n      and\n        /* \"NFTStaking.sol\":5301:5308  uint256 */\n      0x00\n        /* \"NFTStaking.sol\":5330:5346  stakers[_staker] */\n      swap1\n      dup2\n      mstore\n        /* \"NFTStaking.sol\":5330:5337  stakers */\n      0x02\n        /* \"NFTStaking.sol\":5330:5346  stakers[_staker] */\n      0x20\n      dup2\n      swap1\n      mstore\n      0x40\n      swap1\n      swap2\n      keccak256\n        /* \"NFTStaking.sol\":5330:5363  stakers[_staker].timeOfLastUpdate */\n      add\n      sload\n      swap1\n        /* \"NFTStaking.sol\":5227:5373  function getStakerTimeOfLastUpdate(address _staker) external view returns(uint256) {... */\n      jump\n        /* \"NFTStaking.sol\":591:627  IERC20 public immutable rewardsToken */\n    tag_18:\n      tag_36\n      immutable(\"0x5c4c6aa067b6f8e6cb38e6ab843832a94d1712d661a04d73c517d6a1931a9e5d\")\n      dup2\n      jump\n        /* \"NFTStaking.sol\":3605:3806  function availableRewards(address _staker) external view returns(uint256) {... */\n    tag_19:\n      tag_24\n      tag_90\n      calldatasize\n      0x04\n      tag_26\n      jump\t// in\n    tag_90:\n      tag_91\n      jump\t// in\n        /* \"NFTStaking.sol\":1897:2841  function unstake (uint256 _tokenId) external nonReentrant {... */\n    tag_33:\n        /* \"@openzeppelin/contracts/security/ReentrancyGuard.sol\":2261:2282   */\n      tag_95\n        /* \"@openzeppelin/contracts/security/ReentrancyGuard.sol\":2261:2280   */\n      tag_96\n        /* \"@openzeppelin/contracts/security/ReentrancyGuard.sol\":2261:2282   */\n      jump\t// in\n    tag_95:\n        /* \"NFTStaking.sol\":1976:1999  stakerAddress[_tokenId] */\n      0x00\n      dup2\n      dup2\n      mstore\n        /* \"NFTStaking.sol\":1976:1989  stakerAddress */\n      0x03\n        /* \"NFTStaking.sol\":1976:1999  stakerAddress[_tokenId] */\n      0x20\n      mstore\n      0x40\n      swap1\n      keccak256\n      sload\n      sub(shl(0xa0, 0x01), 0x01)\n      and\n        /* \"NFTStaking.sol\":2003:2013  msg.sender */\n      caller\n        /* \"NFTStaking.sol\":1976:2013  stakerAddress[_tokenId] == msg.sender */\n      eq\n        /* \"NFTStaking.sol\":1968:2053  require(stakerAddress[_tokenId] == msg.sender, \"You are not the owner of this token\") */\n      tag_98\n      jumpi\n      mload(0x40)\n      shl(0xe5, 0x461bcd)\n      dup2\n      mstore\n        /* \"#utility.yul\":3828:3830   */\n      0x20\n        /* \"NFTStaking.sol\":1968:2053  require(stakerAddress[_tokenId] == msg.sender, \"You are not the owner of this token\") */\n      0x04\n      dup3\n      add\n        /* \"#utility.yul\":3810:3831   */\n      mstore\n        /* \"#utility.yul\":3867:3869   */\n      0x23\n        /* \"#utility.yul\":3847:3865   */\n      0x24\n      dup3\n      add\n        /* \"#utility.yul\":3840:3870   */\n      mstore\n        /* \"#utility.yul\":3906:3940   */\n      0x596f7520617265206e6f7420746865206f776e6572206f66207468697320746f\n        /* \"#utility.yul\":3886:3904   */\n      0x44\n      dup3\n      add\n        /* \"#utility.yul\":3879:3941   */\n      mstore\n      shl(0xe9, 0x35b2b7)\n        /* \"#utility.yul\":3957:3975   */\n      0x64\n      dup3\n      add\n        /* \"#utility.yul\":3950:3983   */\n      mstore\n        /* \"#utility.yul\":4000:4019   */\n      0x84\n      add\n        /* \"NFTStaking.sol\":1968:2053  require(stakerAddress[_tokenId] == msg.sender, \"You are not the owner of this token\") */\n    tag_99:\n      mload(0x40)\n      dup1\n      swap2\n      sub\n      swap1\n      revert\n    tag_98:\n        /* \"NFTStaking.sol\":2066:2081  uint256 rewards */\n      0x00\n        /* \"NFTStaking.sol\":2084:2112  calculateRewards(msg.sender) */\n      tag_101\n        /* \"NFTStaking.sol\":2101:2111  msg.sender */\n      caller\n        /* \"NFTStaking.sol\":2084:2100  calculateRewards */\n      tag_43\n        /* \"NFTStaking.sol\":2084:2112  calculateRewards(msg.sender) */\n      jump\t// in\n    tag_101:\n        /* \"NFTStaking.sol\":2133:2143  msg.sender */\n      caller\n        /* \"NFTStaking.sol\":2125:2144  stakers[msg.sender] */\n      0x00\n      swap1\n      dup2\n      mstore\n        /* \"NFTStaking.sol\":2125:2132  stakers */\n      0x02\n        /* \"NFTStaking.sol\":2125:2144  stakers[msg.sender] */\n      0x20\n      mstore\n      0x40\n      dup2\n      keccak256\n        /* \"NFTStaking.sol\":2125:2159  stakers[msg.sender].unclaimReawrds */\n      0x03\n      add\n        /* \"NFTStaking.sol\":2125:2170  stakers[msg.sender].unclaimReawrds += rewards */\n      dup1\n      sload\n        /* \"NFTStaking.sol\":2066:2112  uint256 rewards = calculateRewards(msg.sender) */\n      swap3\n      swap4\n      pop\n      dup4\n      swap3\n        /* \"NFTStaking.sol\":2125:2159  stakers[msg.sender].unclaimReawrds */\n      swap1\n      swap2\n        /* \"NFTStaking.sol\":2125:2144  stakers[msg.sender] */\n      swap1\n        /* \"NFTStaking.sol\":2125:2170  stakers[msg.sender].unclaimReawrds += rewards */\n      tag_102\n      swap1\n        /* \"NFTStaking.sol\":2066:2112  uint256 rewards = calculateRewards(msg.sender) */\n      dup5\n      swap1\n        /* \"NFTStaking.sol\":2125:2170  stakers[msg.sender].unclaimReawrds += rewards */\n      tag_103\n      jump\t// in\n    tag_102:\n      swap1\n      swap2\n      sstore\n      pop\n      pop\n        /* \"NFTStaking.sol\":2191:2201  msg.sender */\n      caller\n        /* \"NFTStaking.sol\":2183:2202  stakers[msg.sender] */\n      0x00\n      swap1\n      dup2\n      mstore\n        /* \"NFTStaking.sol\":2183:2190  stakers */\n      0x02\n        /* \"NFTStaking.sol\":2183:2202  stakers[msg.sender] */\n      0x20\n      mstore\n      0x40\n      dup2\n      keccak256\n        /* \"NFTStaking.sol\":2183:2220  stakers[msg.sender].amountStaked -= 1 */\n      dup1\n      sload\n        /* \"NFTStaking.sol\":2219:2220  1 */\n      0x01\n      swap3\n        /* \"NFTStaking.sol\":2183:2202  stakers[msg.sender] */\n      swap1\n        /* \"NFTStaking.sol\":2183:2220  stakers[msg.sender].amountStaked -= 1 */\n      tag_104\n      swap1\n        /* \"NFTStaking.sol\":2219:2220  1 */\n      dup5\n      swap1\n        /* \"NFTStaking.sol\":2183:2220  stakers[msg.sender].amountStaked -= 1 */\n      tag_105\n      jump\t// in\n    tag_104:\n      swap1\n      swap2\n      sstore\n      pop\n      pop\n        /* \"NFTStaking.sol\":2241:2251  msg.sender */\n      caller\n        /* \"NFTStaking.sol\":2233:2252  stakers[msg.sender] */\n      0x00\n      swap1\n      dup2\n      mstore\n        /* \"NFTStaking.sol\":2233:2240  stakers */\n      0x02\n        /* \"NFTStaking.sol\":2233:2252  stakers[msg.sender] */\n      0x20\n      dup2\n      swap1\n      mstore\n      0x40\n      dup3\n      keccak256\n        /* \"NFTStaking.sol\":2272:2287  block.timestamp */\n      timestamp\n        /* \"NFTStaking.sol\":2233:2269  stakers[msg.sender].timeOfLastUpdate */\n      swap2\n      add\n        /* \"NFTStaking.sol\":2233:2287  stakers[msg.sender].timeOfLastUpdate = block.timestamp */\n      sstore\n        /* \"NFTStaking.sol\":2300:2698  for(uint256 i = 0; i < stakers[msg.sender].stakedTokens.length; i++) {... */\n    tag_106:\n        /* \"NFTStaking.sol\":2331:2341  msg.sender */\n      caller\n        /* \"NFTStaking.sol\":2323:2342  stakers[msg.sender] */\n      0x00\n      swap1\n      dup2\n      mstore\n        /* \"NFTStaking.sol\":2323:2330  stakers */\n      0x02\n        /* \"NFTStaking.sol\":2323:2342  stakers[msg.sender] */\n      0x20\n      mstore\n      0x40\n      swap1\n      keccak256\n        /* \"NFTStaking.sol\":2323:2355  stakers[msg.sender].stakedTokens */\n      0x01\n      add\n        /* \"NFTStaking.sol\":2323:2362  stakers[msg.sender].stakedTokens.length */\n      sload\n        /* \"NFTStaking.sol\":2319:2362  i < stakers[msg.sender].stakedTokens.length */\n      dup2\n      lt\n        /* \"NFTStaking.sol\":2300:2698  for(uint256 i = 0; i < stakers[msg.sender].stakedTokens.length; i++) {... */\n      iszero\n      tag_107\n      jumpi\n        /* \"NFTStaking.sol\":2397:2407  msg.sender */\n      caller\n        /* \"NFTStaking.sol\":2389:2408  stakers[msg.sender] */\n      0x00\n      swap1\n      dup2\n      mstore\n        /* \"NFTStaking.sol\":2389:2396  stakers */\n      0x02\n        /* \"NFTStaking.sol\":2389:2408  stakers[msg.sender] */\n      0x20\n      mstore\n      0x40\n      swap1\n      keccak256\n        /* \"NFTStaking.sol\":2389:2421  stakers[msg.sender].stakedTokens */\n      0x01\n      add\n        /* \"NFTStaking.sol\":2389:2424  stakers[msg.sender].stakedTokens[i] */\n      dup1\n      sload\n        /* \"NFTStaking.sol\":2436:2444  _tokenId */\n      dup5\n      swap2\n        /* \"NFTStaking.sol\":2389:2421  stakers[msg.sender].stakedTokens */\n      swap1\n        /* \"NFTStaking.sol\":2422:2423  i */\n      dup4\n      swap1\n        /* \"NFTStaking.sol\":2389:2424  stakers[msg.sender].stakedTokens[i] */\n      dup2\n      lt\n      tag_110\n      jumpi\n      tag_110\n      tag_111\n      jump\t// in\n    tag_110:\n      swap1\n      0x00\n      mstore\n      keccak256(0x00, 0x20)\n      swap1\n      0x02\n      mul\n      add\n        /* \"NFTStaking.sol\":2389:2432  stakers[msg.sender].stakedTokens[i].tokenId */\n      0x01\n      add\n      sload\n        /* \"NFTStaking.sol\":2389:2444  stakers[msg.sender].stakedTokens[i].tokenId == _tokenId */\n      sub\n        /* \"NFTStaking.sol\":2386:2685  if(stakers[msg.sender].stakedTokens[i].tokenId == _tokenId) {... */\n      tag_113\n      jumpi\n        /* \"NFTStaking.sol\":2513:2523  msg.sender */\n      caller\n        /* \"NFTStaking.sol\":2505:2524  stakers[msg.sender] */\n      0x00\n      swap1\n      dup2\n      mstore\n        /* \"NFTStaking.sol\":2505:2512  stakers */\n      0x02\n        /* \"NFTStaking.sol\":2505:2524  stakers[msg.sender] */\n      0x20\n      mstore\n      0x40\n      swap1\n      keccak256\n        /* \"NFTStaking.sol\":2505:2537  stakers[msg.sender].stakedTokens */\n      0x01\n      swap1\n      dup2\n      add\n        /* \"NFTStaking.sol\":2538:2577  stakers[msg.sender].stakedTokens.length */\n      dup1\n      sload\n        /* \"NFTStaking.sol\":2505:2537  stakers[msg.sender].stakedTokens */\n      swap1\n      swap2\n        /* \"NFTStaking.sol\":2538:2581  stakers[msg.sender].stakedTokens.length - 1 */\n      tag_114\n      swap2\n      tag_105\n      jump\t// in\n    tag_114:\n        /* \"NFTStaking.sol\":2505:2582  stakers[msg.sender].stakedTokens[stakers[msg.sender].stakedTokens.length - 1] */\n      dup2\n      sload\n      dup2\n      lt\n      tag_116\n      jumpi\n      tag_116\n      tag_111\n      jump\t// in\n    tag_116:\n      swap1\n      0x00\n      mstore\n      keccak256(0x00, 0x20)\n      swap1\n      0x02\n      mul\n      add\n        /* \"NFTStaking.sol\":2467:2474  stakers */\n      0x02\n        /* \"NFTStaking.sol\":2467:2486  stakers[msg.sender] */\n      0x00\n        /* \"NFTStaking.sol\":2475:2485  msg.sender */\n      caller\n      sub(shl(0xa0, 0x01), 0x01)\n        /* \"NFTStaking.sol\":2467:2486  stakers[msg.sender] */\n      and\n      sub(shl(0xa0, 0x01), 0x01)\n      and\n      dup2\n      mstore\n      0x20\n      add\n      swap1\n      dup2\n      mstore\n      0x20\n      add\n      0x00\n      keccak256\n        /* \"NFTStaking.sol\":2467:2499  stakers[msg.sender].stakedTokens */\n      0x01\n      add\n        /* \"NFTStaking.sol\":2500:2501  i */\n      dup3\n        /* \"NFTStaking.sol\":2467:2502  stakers[msg.sender].stakedTokens[i] */\n      dup2\n      sload\n      dup2\n      lt\n      tag_119\n      jumpi\n      tag_119\n      tag_111\n      jump\t// in\n    tag_119:\n      0x00\n      swap2\n      dup3\n      mstore\n      0x20\n      dup1\n      dup4\n      keccak256\n        /* \"NFTStaking.sol\":2467:2582  stakers[msg.sender].stakedTokens[i] = stakers[msg.sender].stakedTokens[stakers[msg.sender].stakedTokens.length - 1] */\n      dup5\n      sload\n        /* \"NFTStaking.sol\":2467:2502  stakers[msg.sender].stakedTokens[i] */\n      0x02\n      swap4\n      dup5\n      mul\n      swap1\n      swap2\n      add\n        /* \"NFTStaking.sol\":2467:2582  stakers[msg.sender].stakedTokens[i] = stakers[msg.sender].stakedTokens[stakers[msg.sender].stakedTokens.length - 1] */\n      dup1\n      sload\n      not(sub(shl(0xa0, 0x01), 0x01))\n      and\n      sub(shl(0xa0, 0x01), 0x01)\n      swap1\n      swap3\n      and\n      swap2\n      swap1\n      swap2\n      or\n      dup2\n      sstore\n      0x01\n      swap5\n      dup6\n      add\n      sload\n      swap1\n      dup6\n      add\n      sstore\n        /* \"NFTStaking.sol\":2611:2621  msg.sender */\n      caller\n        /* \"NFTStaking.sol\":2603:2622  stakers[msg.sender] */\n      dup4\n      mstore\n      mstore\n      0x40\n      swap1\n      keccak256\n        /* \"NFTStaking.sol\":2603:2635  stakers[msg.sender].stakedTokens */\n      add\n        /* \"NFTStaking.sol\":2603:2641  stakers[msg.sender].stakedTokens.pop() */\n      dup1\n      sload\n      dup1\n      tag_122\n      jumpi\n      tag_122\n      tag_123\n      jump\t// in\n    tag_122:\n      0x00\n      dup3\n      dup2\n      mstore\n      0x20\n      dup2\n      keccak256\n      0x02\n      not(0x00)\n      swap1\n      swap4\n      add\n      swap3\n      dup4\n      mul\n      add\n      dup1\n      sload\n      not(sub(shl(0xa0, 0x01), 0x01))\n      and\n      dup2\n      sstore\n      0x01\n      add\n      sstore\n      swap1\n      sstore\n        /* \"NFTStaking.sol\":2662:2667  break */\n      jump(tag_107)\n        /* \"NFTStaking.sol\":2386:2685  if(stakers[msg.sender].stakedTokens[i].tokenId == _tokenId) {... */\n    tag_113:\n        /* \"NFTStaking.sol\":2364:2367  i++ */\n      dup1\n      tag_125\n      dup2\n      tag_126\n      jump\t// in\n    tag_125:\n      swap2\n      pop\n      pop\n        /* \"NFTStaking.sol\":2300:2698  for(uint256 i = 0; i < stakers[msg.sender].stakedTokens.length; i++) {... */\n      jump(tag_106)\n    tag_107:\n      pop\n        /* \"NFTStaking.sol\":2717:2740  stakerAddress[_tokenId] */\n      0x00\n      dup3\n      dup2\n      mstore\n        /* \"NFTStaking.sol\":2717:2730  stakerAddress */\n      0x03\n        /* \"NFTStaking.sol\":2717:2740  stakerAddress[_tokenId] */\n      0x20\n      mstore\n      0x40\n      dup1\n      dup3\n      keccak256\n        /* \"NFTStaking.sol\":2710:2740  delete stakerAddress[_tokenId] */\n      dup1\n      sload\n      not(sub(shl(0xa0, 0x01), 0x01))\n      and\n      swap1\n      sstore\n        /* \"NFTStaking.sol\":2753:2827  nftCollection.safeTransferFrom(address(this), msg.sender, _tokenId, 1, \"\") */\n      mload\n      shl(0xe1, 0x79212195)\n      dup2\n      mstore\n        /* \"NFTStaking.sol\":2792:2796  this */\n      address\n        /* \"NFTStaking.sol\":2753:2827  nftCollection.safeTransferFrom(address(this), msg.sender, _tokenId, 1, \"\") */\n      0x04\n      dup3\n      add\n        /* \"#utility.yul\":5193:5227   */\n      mstore\n        /* \"NFTStaking.sol\":2799:2809  msg.sender */\n      caller\n        /* \"#utility.yul\":5243:5261   */\n      0x24\n      dup3\n      add\n        /* \"#utility.yul\":5236:5279   */\n      mstore\n        /* \"#utility.yul\":5295:5313   */\n      0x44\n      dup2\n      add\n        /* \"#utility.yul\":5288:5322   */\n      dup5\n      swap1\n      mstore\n      0x01\n        /* \"#utility.yul\":5338:5356   */\n      0x64\n      dup3\n      add\n        /* \"#utility.yul\":5331:5365   */\n      mstore\n        /* \"#utility.yul\":5402:5405   */\n      0xa0\n        /* \"#utility.yul\":5381:5400   */\n      0x84\n      dup3\n      add\n        /* \"#utility.yul\":5374:5406   */\n      mstore\n        /* \"#utility.yul\":5422:5441   */\n      0xa4\n      dup2\n      add\n        /* \"#utility.yul\":5415:5445   */\n      swap2\n      swap1\n      swap2\n      mstore\n      sub(shl(0xa0, 0x01), 0x01)\n        /* \"NFTStaking.sol\":2753:2766  nftCollection */\n      immutable(\"0x8e8fab5f003314da8d1873ea7720e8d9f47650136d916064d1edb8a11d682624\")\n        /* \"NFTStaking.sol\":2753:2783  nftCollection.safeTransferFrom */\n      and\n      swap1\n      0xf242432a\n      swap1\n        /* \"#utility.yul\":5462:5481   */\n      0xc4\n      add\n        /* \"NFTStaking.sol\":2753:2827  nftCollection.safeTransferFrom(address(this), msg.sender, _tokenId, 1, \"\") */\n      0x00\n      mload(0x40)\n      dup1\n      dup4\n      sub\n      dup2\n      0x00\n      dup8\n      dup1\n      extcodesize\n      iszero\n      dup1\n      iszero\n      tag_129\n      jumpi\n      0x00\n      dup1\n      revert\n    tag_129:\n      pop\n      gas\n      call\n      iszero\n      dup1\n      iszero\n      tag_131\n      jumpi\n      returndatasize\n      0x00\n      dup1\n      returndatacopy\n      revert(0x00, returndatasize)\n    tag_131:\n      pop\n      pop\n      pop\n      pop\n        /* \"NFTStaking.sol\":1955:2841  {... */\n      pop\n        /* \"@openzeppelin/contracts/security/ReentrancyGuard.sol\":2303:2323   */\n      tag_132\n        /* \"@openzeppelin/contracts/security/ReentrancyGuard.sol\":1716:1717   */\n      0x01\n        /* \"@openzeppelin/contracts/security/ReentrancyGuard.sol\":2809:2816   */\n      0x00\n        /* \"@openzeppelin/contracts/security/ReentrancyGuard.sol\":2809:2831   */\n      sstore\n        /* \"@openzeppelin/contracts/security/ReentrancyGuard.sol\":2629:2838   */\n      jump\n        /* \"@openzeppelin/contracts/security/ReentrancyGuard.sol\":2303:2323   */\n    tag_132:\n        /* \"NFTStaking.sol\":1897:2841  function unstake (uint256 _tokenId) external nonReentrant {... */\n      pop\n      jump\t// out\n        /* \"NFTStaking.sol\":2859:3268  function claimRewards() external nonReentrant {... */\n    tag_35:\n        /* \"@openzeppelin/contracts/security/ReentrancyGuard.sol\":2261:2282   */\n      tag_135\n        /* \"@openzeppelin/contracts/security/ReentrancyGuard.sol\":2261:2280   */\n      tag_96\n        /* \"@openzeppelin/contracts/security/ReentrancyGuard.sol\":2261:2282   */\n      jump\t// in\n    tag_135:\n        /* \"NFTStaking.sol\":2982:2992  msg.sender */\n      caller\n        /* \"NFTStaking.sol\":2925:2940  uint256 rewards */\n      0x00\n        /* \"NFTStaking.sol\":2974:2993  stakers[msg.sender] */\n      dup2\n      dup2\n      mstore\n        /* \"NFTStaking.sol\":2974:2981  stakers */\n      0x02\n        /* \"NFTStaking.sol\":2974:2993  stakers[msg.sender] */\n      0x20\n      mstore\n      0x40\n      dup2\n      keccak256\n        /* \"NFTStaking.sol\":2974:3008  stakers[msg.sender].unclaimReawrds */\n      0x03\n      add\n      sload\n        /* \"NFTStaking.sol\":2925:2940  uint256 rewards */\n      swap1\n      swap2\n        /* \"NFTStaking.sol\":2943:2971  calculateRewards(msg.sender) */\n      tag_137\n      swap1\n        /* \"NFTStaking.sol\":2943:2959  calculateRewards */\n      tag_43\n        /* \"NFTStaking.sol\":2943:2971  calculateRewards(msg.sender) */\n      jump\t// in\n    tag_137:\n        /* \"NFTStaking.sol\":2943:3008  calculateRewards(msg.sender) + stakers[msg.sender].unclaimReawrds */\n      tag_138\n      swap2\n      swap1\n      tag_103\n      jump\t// in\n    tag_138:\n        /* \"NFTStaking.sol\":2925:3008  uint256 rewards = calculateRewards(msg.sender) + stakers[msg.sender].unclaimReawrds */\n      swap1\n      pop\n        /* \"NFTStaking.sol\":3039:3040  0 */\n      0x00\n        /* \"NFTStaking.sol\":3029:3036  rewards */\n      dup2\n        /* \"NFTStaking.sol\":3029:3040  rewards > 0 */\n      gt\n        /* \"NFTStaking.sol\":3021:3081  require(rewards > 0, 'You do not have any rewards to claim') */\n      tag_139\n      jumpi\n      mload(0x40)\n      shl(0xe5, 0x461bcd)\n      dup2\n      mstore\n        /* \"#utility.yul\":5694:5696   */\n      0x20\n        /* \"NFTStaking.sol\":3021:3081  require(rewards > 0, 'You do not have any rewards to claim') */\n      0x04\n      dup3\n      add\n        /* \"#utility.yul\":5676:5697   */\n      mstore\n        /* \"#utility.yul\":5733:5735   */\n      0x24\n        /* \"#utility.yul\":5713:5731   */\n      dup1\n      dup3\n      add\n        /* \"#utility.yul\":5706:5736   */\n      mstore\n        /* \"#utility.yul\":5772:5806   */\n      0x596f7520646f206e6f74206861766520616e79207265776172647320746f2063\n        /* \"#utility.yul\":5752:5770   */\n      0x44\n      dup3\n      add\n        /* \"#utility.yul\":5745:5807   */\n      mstore\n      shl(0xe0, 0x6c61696d)\n        /* \"#utility.yul\":5823:5841   */\n      0x64\n      dup3\n      add\n        /* \"#utility.yul\":5816:5850   */\n      mstore\n        /* \"#utility.yul\":5867:5886   */\n      0x84\n      add\n        /* \"NFTStaking.sol\":3021:3081  require(rewards > 0, 'You do not have any rewards to claim') */\n      tag_99\n        /* \"#utility.yul\":5492:5892   */\n      jump\n        /* \"NFTStaking.sol\":3021:3081  require(rewards > 0, 'You do not have any rewards to claim') */\n    tag_139:\n        /* \"NFTStaking.sol\":3102:3112  msg.sender */\n      caller\n        /* \"NFTStaking.sol\":3094:3113  stakers[msg.sender] */\n      0x00\n      dup2\n      dup2\n      mstore\n        /* \"NFTStaking.sol\":3094:3101  stakers */\n      0x02\n        /* \"NFTStaking.sol\":3094:3113  stakers[msg.sender] */\n      0x20\n      dup2\n      swap1\n      mstore\n      0x40\n      dup3\n      keccak256\n        /* \"NFTStaking.sol\":3133:3148  block.timestamp */\n      timestamp\n        /* \"NFTStaking.sol\":3094:3130  stakers[msg.sender].timeOfLastUpdate */\n      swap2\n      dup2\n      add\n        /* \"NFTStaking.sol\":3094:3148  stakers[msg.sender].timeOfLastUpdate = block.timestamp */\n      swap2\n      swap1\n      swap2\n      sstore\n        /* \"NFTStaking.sol\":3161:3195  stakers[msg.sender].unclaimReawrds */\n      0x03\n      add\n        /* \"NFTStaking.sol\":3161:3199  stakers[msg.sender].unclaimReawrds = 0 */\n      sstore\n        /* \"NFTStaking.sol\":3212:3258  rewardsToken.safeTransfer(msg.sender, rewards) */\n      tag_142\n      swap1\n        /* \"NFTStaking.sol\":3212:3224  rewardsToken */\n      immutable(\"0x5c4c6aa067b6f8e6cb38e6ab843832a94d1712d661a04d73c517d6a1931a9e5d\")\n      sub(shl(0xa0, 0x01), 0x01)\n        /* \"NFTStaking.sol\":3212:3237  rewardsToken.safeTransfer */\n      and\n      swap1\n        /* \"NFTStaking.sol\":3250:3257  rewards */\n      dup4\n        /* \"NFTStaking.sol\":3212:3237  rewardsToken.safeTransfer */\n      tag_143\n        /* \"NFTStaking.sol\":3212:3258  rewardsToken.safeTransfer(msg.sender, rewards) */\n      jump\t// in\n    tag_142:\n        /* \"NFTStaking.sol\":2905:3268  {... */\n      pop\n        /* \"@openzeppelin/contracts/security/ReentrancyGuard.sol\":2303:2323   */\n      tag_144\n        /* \"@openzeppelin/contracts/security/ReentrancyGuard.sol\":1716:1717   */\n      0x01\n        /* \"@openzeppelin/contracts/security/ReentrancyGuard.sol\":2809:2816   */\n      0x00\n        /* \"@openzeppelin/contracts/security/ReentrancyGuard.sol\":2809:2831   */\n      sstore\n        /* \"@openzeppelin/contracts/security/ReentrancyGuard.sol\":2629:2838   */\n      jump\n        /* \"@openzeppelin/contracts/security/ReentrancyGuard.sol\":2303:2323   */\n    tag_144:\n        /* \"NFTStaking.sol\":2859:3268  function claimRewards() external nonReentrant {... */\n      jump\t// out\n        /* \"NFTStaking.sol\":3286:3597  function calculateRewards(address _staker) public view returns(uint256) {... */\n    tag_43:\n      sub(shl(0xa0, 0x01), 0x01)\n        /* \"NFTStaking.sol\":3419:3435  stakers[_staker] */\n      dup2\n      and\n        /* \"NFTStaking.sol\":3349:3356  uint256 */\n      0x00\n        /* \"NFTStaking.sol\":3419:3435  stakers[_staker] */\n      swap1\n      dup2\n      mstore\n        /* \"NFTStaking.sol\":3419:3426  stakers */\n      0x02\n        /* \"NFTStaking.sol\":3419:3435  stakers[_staker] */\n      0x20\n      dup2\n      swap1\n      mstore\n      0x40\n      dup3\n      keccak256\n        /* \"NFTStaking.sol\":3419:3452  stakers[_staker].timeOfLastUpdate */\n      add\n      sload\n        /* \"NFTStaking.sol\":3349:3356  uint256 */\n      dup2\n      swap1\n        /* \"NFTStaking.sol\":3401:3452  block.timestamp - stakers[_staker].timeOfLastUpdate */\n      tag_147\n      swap1\n        /* \"NFTStaking.sol\":3401:3416  block.timestamp */\n      timestamp\n        /* \"NFTStaking.sol\":3401:3452  block.timestamp - stakers[_staker].timeOfLastUpdate */\n      tag_105\n      jump\t// in\n    tag_147:\n      sub(shl(0xa0, 0x01), 0x01)\n        /* \"NFTStaking.sol\":3523:3539  stakers[_staker] */\n      dup5\n      and\n        /* \"NFTStaking.sol\":3465:3480  uint256 rewards */\n      0x00\n        /* \"NFTStaking.sol\":3523:3539  stakers[_staker] */\n      swap1\n      dup2\n      mstore\n        /* \"NFTStaking.sol\":3523:3530  stakers */\n      0x02\n        /* \"NFTStaking.sol\":3523:3539  stakers[_staker] */\n      0x20\n      mstore\n      0x40\n      dup2\n      keccak256\n        /* \"NFTStaking.sol\":3523:3552  stakers[_staker].amountStaked */\n      sload\n        /* \"NFTStaking.sol\":3506:3520  rewardsPerHour */\n      sload(0x01)\n        /* \"NFTStaking.sol\":3371:3452  uint256 timeSinceLastUpdate = block.timestamp - stakers[_staker].timeOfLastUpdate */\n      swap3\n      swap4\n      pop\n        /* \"NFTStaking.sol\":3465:3480  uint256 rewards */\n      swap1\n      swap2\n        /* \"NFTStaking.sol\":3556:3560  3600 */\n      0x0e10\n      swap2\n        /* \"NFTStaking.sol\":3523:3552  stakers[_staker].amountStaked */\n      swap1\n        /* \"NFTStaking.sol\":3484:3520  timeSinceLastUpdate * rewardsPerHour */\n      tag_148\n      swap1\n        /* \"NFTStaking.sol\":3371:3452  uint256 timeSinceLastUpdate = block.timestamp - stakers[_staker].timeOfLastUpdate */\n      dup6\n        /* \"NFTStaking.sol\":3484:3520  timeSinceLastUpdate * rewardsPerHour */\n      tag_149\n      jump\t// in\n    tag_148:\n        /* \"NFTStaking.sol\":3484:3552  timeSinceLastUpdate * rewardsPerHour * stakers[_staker].amountStaked */\n      tag_150\n      swap2\n      swap1\n      tag_149\n      jump\t// in\n    tag_150:\n        /* \"NFTStaking.sol\":3483:3560  (timeSinceLastUpdate * rewardsPerHour * stakers[_staker].amountStaked) / 3600 */\n      tag_151\n      swap2\n      swap1\n      tag_152\n      jump\t// in\n    tag_151:\n        /* \"NFTStaking.sol\":3465:3560  uint256 rewards = (timeSinceLastUpdate * rewardsPerHour * stakers[_staker].amountStaked) / 3600 */\n      swap5\n        /* \"NFTStaking.sol\":3286:3597  function calculateRewards(address _staker) public view returns(uint256) {... */\n      swap4\n      pop\n      pop\n      pop\n      pop\n      jump\t// out\n        /* \"NFTStaking.sol\":4794:4917  function getStakerInfo(address _staker) external view returns(Staker memory) {... */\n    tag_51:\n        /* \"NFTStaking.sol\":4856:4869  Staker memory */\n      tag_153\n      mload(0x40)\n      dup1\n      0x80\n      add\n      0x40\n      mstore\n      dup1\n      0x00\n      dup2\n      mstore\n      0x20\n      add\n      0x60\n      dup2\n      mstore\n      0x20\n      add\n      0x00\n      dup2\n      mstore\n      0x20\n      add\n      0x00\n      dup2\n      mstore\n      pop\n      swap1\n      jump\n    tag_153:\n      sub(shl(0xa0, 0x01), 0x01)\n        /* \"NFTStaking.sol\":4891:4907  stakers[_staker] */\n      dup3\n      and\n      0x00\n      swap1\n      dup2\n      mstore\n        /* \"NFTStaking.sol\":4891:4898  stakers */\n      0x02\n        /* \"NFTStaking.sol\":4891:4907  stakers[_staker] */\n      0x20\n      swap1\n      dup2\n      mstore\n      0x40\n      dup1\n      dup4\n      keccak256\n        /* \"NFTStaking.sol\":4884:4907  return stakers[_staker] */\n      dup2\n      mload\n      0x80\n      dup2\n      add\n      dup4\n      mstore\n      dup2\n      sload\n      dup2\n      mstore\n      0x01\n      dup3\n      add\n      dup1\n      sload\n      dup5\n      mload\n      dup2\n      dup8\n      mul\n      dup2\n      add\n      dup8\n      add\n      swap1\n      swap6\n      mstore\n      dup1\n      dup6\n      mstore\n      swap2\n      swap6\n        /* \"NFTStaking.sol\":4891:4907  stakers[_staker] */\n      swap3\n      swap5\n        /* \"NFTStaking.sol\":4884:4907  return stakers[_staker] */\n      dup7\n      dup2\n      add\n      swap5\n      swap4\n      swap2\n      swap3\n      swap2\n        /* \"NFTStaking.sol\":4891:4907  stakers[_staker] */\n      swap1\n        /* \"NFTStaking.sol\":4884:4907  return stakers[_staker] */\n      dup5\n      add\n    tag_156:\n      dup3\n      dup3\n      lt\n      iszero\n      tag_157\n      jumpi\n      0x00\n      dup5\n      dup2\n      mstore\n      0x20\n      swap1\n      dup2\n      swap1\n      keccak256\n      0x40\n      dup1\n      mload\n      dup1\n      dup3\n      add\n      swap1\n      swap2\n      mstore\n      0x02\n      dup6\n      mul\n      swap1\n      swap2\n      add\n      dup1\n      sload\n      sub(shl(0xa0, 0x01), 0x01)\n      and\n      dup3\n      mstore\n      0x01\n      swap1\n      dup2\n      add\n      sload\n      dup3\n      dup5\n      add\n      mstore\n      swap1\n      dup4\n      mstore\n      swap1\n      swap3\n      add\n      swap2\n      add\n      jump(tag_156)\n    tag_157:\n      pop\n      pop\n      pop\n      pop\n      dup2\n      mstore\n      0x20\n      add\n      0x02\n      dup3\n      add\n      sload\n      dup2\n      mstore\n      0x20\n      add\n      0x03\n      dup3\n      add\n      sload\n      dup2\n      mstore\n      pop\n      pop\n      swap1\n      pop\n        /* \"NFTStaking.sol\":4794:4917  function getStakerInfo(address _staker) external view returns(Staker memory) {... */\n      swap2\n      swap1\n      pop\n      jump\t// out\n        /* \"NFTStaking.sol\":3942:4644  function getStakeTokens(address _staker) public view returns(StakedToken[] memory) {... */\n    tag_72:\n      sub(shl(0xa0, 0x01), 0x01)\n        /* \"NFTStaking.sol\":4041:4057  stakers[_staker] */\n      dup2\n      and\n        /* \"NFTStaking.sol\":4073:4074  0 */\n      0x00\n        /* \"NFTStaking.sol\":4041:4057  stakers[_staker] */\n      swap1\n      dup2\n      mstore\n        /* \"NFTStaking.sol\":4041:4048  stakers */\n      0x02\n        /* \"NFTStaking.sol\":4041:4057  stakers[_staker] */\n      0x20\n      mstore\n      0x40\n      swap1\n      keccak256\n        /* \"NFTStaking.sol\":4041:4070  stakers[_staker].amountStaked */\n      sload\n        /* \"NFTStaking.sol\":4003:4023  StakedToken[] memory */\n      0x60\n      swap1\n        /* \"NFTStaking.sol\":4041:4074  stakers[_staker].amountStaked > 0 */\n      iszero\n        /* \"NFTStaking.sol\":4038:4635  if(stakers[_staker].amountStaked > 0) {... */\n      tag_161\n      jumpi\n      sub(shl(0xa0, 0x01), 0x01)\n        /* \"NFTStaking.sol\":4148:4164  stakers[_staker] */\n      dup3\n      and\n        /* \"NFTStaking.sol\":4093:4127  StakedToken[] memory _stakedTokens */\n      0x00\n        /* \"NFTStaking.sol\":4148:4164  stakers[_staker] */\n      swap1\n      dup2\n      mstore\n        /* \"NFTStaking.sol\":4148:4155  stakers */\n      0x02\n        /* \"NFTStaking.sol\":4148:4164  stakers[_staker] */\n      0x20\n      mstore\n      0x40\n      dup2\n      keccak256\n        /* \"NFTStaking.sol\":4148:4177  stakers[_staker].amountStaked */\n      sload\n        /* \"NFTStaking.sol\":4130:4178  new StakedToken[](stakers[_staker].amountStaked) */\n      0xffffffffffffffff\n      dup2\n      gt\n      iszero\n      tag_163\n      jumpi\n      tag_163\n      tag_164\n      jump\t// in\n    tag_163:\n      mload(0x40)\n      swap1\n      dup1\n      dup3\n      mstore\n      dup1\n      0x20\n      mul\n      0x20\n      add\n      dup3\n      add\n      0x40\n      mstore\n      dup1\n      iszero\n      tag_165\n      jumpi\n      dup2\n      0x20\n      add\n    tag_166:\n      0x40\n      dup1\n      mload\n      dup1\n      dup3\n      add\n      swap1\n      swap2\n      mstore\n      0x00\n      dup1\n      dup3\n      mstore\n      0x20\n      dup3\n      add\n      mstore\n      dup2\n      mstore\n      0x20\n      add\n      swap1\n      0x01\n      swap1\n      sub\n      swap1\n      dup2\n      tag_166\n      jumpi\n      swap1\n      pop\n    tag_165:\n      pop\n        /* \"NFTStaking.sol\":4093:4178  StakedToken[] memory _stakedTokens = new StakedToken[](stakers[_staker].amountStaked) */\n      swap1\n      pop\n        /* \"NFTStaking.sol\":4195:4206  uint _index */\n      0x00\n        /* \"NFTStaking.sol\":4233:4242  uint256 i */\n      dup1\n        /* \"NFTStaking.sol\":4229:4527  for(uint256 i = 0; i < stakers[_staker].stakedTokens.length; i++) {... */\n    tag_169:\n      sub(shl(0xa0, 0x01), 0x01)\n        /* \"NFTStaking.sol\":4252:4268  stakers[_staker] */\n      dup6\n      and\n      0x00\n      swap1\n      dup2\n      mstore\n        /* \"NFTStaking.sol\":4252:4259  stakers */\n      0x02\n        /* \"NFTStaking.sol\":4252:4268  stakers[_staker] */\n      0x20\n      mstore\n      0x40\n      swap1\n      keccak256\n        /* \"NFTStaking.sol\":4252:4281  stakers[_staker].stakedTokens */\n      0x01\n      add\n        /* \"NFTStaking.sol\":4252:4288  stakers[_staker].stakedTokens.length */\n      sload\n        /* \"NFTStaking.sol\":4248:4288  i < stakers[_staker].stakedTokens.length */\n      dup2\n      lt\n        /* \"NFTStaking.sol\":4229:4527  for(uint256 i = 0; i < stakers[_staker].stakedTokens.length; i++) {... */\n      iszero\n      tag_170\n      jumpi\n      sub(shl(0xa0, 0x01), 0x01)\n        /* \"NFTStaking.sol\":4319:4335  stakers[_staker] */\n      dup6\n      and\n        /* \"NFTStaking.sol\":4370:4371  0 */\n      0x00\n        /* \"NFTStaking.sol\":4319:4335  stakers[_staker] */\n      swap1\n      dup2\n      mstore\n        /* \"NFTStaking.sol\":4319:4326  stakers */\n      0x02\n        /* \"NFTStaking.sol\":4319:4335  stakers[_staker] */\n      0x20\n      mstore\n      0x40\n      dup2\n      keccak256\n        /* \"NFTStaking.sol\":4319:4348  stakers[_staker].stakedTokens */\n      0x01\n      add\n        /* \"NFTStaking.sol\":4319:4351  stakers[_staker].stakedTokens[i] */\n      dup1\n      sload\n        /* \"NFTStaking.sol\":4349:4350  i */\n      dup4\n      swap1\n        /* \"NFTStaking.sol\":4319:4351  stakers[_staker].stakedTokens[i] */\n      dup2\n      lt\n      tag_173\n      jumpi\n      tag_173\n      tag_111\n      jump\t// in\n    tag_173:\n      0x00\n      swap2\n      dup3\n      mstore\n      0x20\n      swap1\n      swap2\n      keccak256\n      0x02\n      swap1\n      swap2\n      mul\n      add\n        /* \"NFTStaking.sol\":4319:4358  stakers[_staker].stakedTokens[i].staker */\n      sload\n      sub(shl(0xa0, 0x01), 0x01)\n      and\n        /* \"NFTStaking.sol\":4319:4372  stakers[_staker].stakedTokens[i].staker != address(0) */\n      eq\n        /* \"NFTStaking.sol\":4316:4510  if(stakers[_staker].stakedTokens[i].staker != address(0)) {... */\n      tag_175\n      jumpi\n      sub(shl(0xa0, 0x01), 0x01)\n        /* \"NFTStaking.sol\":4423:4439  stakers[_staker] */\n      dup6\n      and\n      0x00\n      swap1\n      dup2\n      mstore\n        /* \"NFTStaking.sol\":4423:4430  stakers */\n      0x02\n        /* \"NFTStaking.sol\":4423:4439  stakers[_staker] */\n      0x20\n      mstore\n      0x40\n      swap1\n      keccak256\n        /* \"NFTStaking.sol\":4423:4452  stakers[_staker].stakedTokens */\n      0x01\n      add\n        /* \"NFTStaking.sol\":4423:4455  stakers[_staker].stakedTokens[i] */\n      dup1\n      sload\n        /* \"NFTStaking.sol\":4453:4454  i */\n      dup3\n      swap1\n        /* \"NFTStaking.sol\":4423:4455  stakers[_staker].stakedTokens[i] */\n      dup2\n      lt\n      tag_177\n      jumpi\n      tag_177\n      tag_111\n      jump\t// in\n    tag_177:\n      0x00\n      swap2\n      dup3\n      mstore\n      0x20\n      swap2\n      dup3\n      swap1\n      keccak256\n        /* \"NFTStaking.sol\":4399:4455  _stakedTokens[_index] = stakers[_staker].stakedTokens[i] */\n      0x40\n      dup1\n      mload\n      dup1\n      dup3\n      add\n      swap1\n      swap2\n      mstore\n        /* \"NFTStaking.sol\":4423:4455  stakers[_staker].stakedTokens[i] */\n      0x02\n      swap1\n      swap3\n      mul\n      add\n        /* \"NFTStaking.sol\":4399:4455  _stakedTokens[_index] = stakers[_staker].stakedTokens[i] */\n      dup1\n      sload\n      sub(shl(0xa0, 0x01), 0x01)\n      and\n      dup3\n      mstore\n      0x01\n      add\n      sload\n      swap2\n      dup2\n      add\n      swap2\n      swap1\n      swap2\n      mstore\n        /* \"NFTStaking.sol\":4399:4420  _stakedTokens[_index] */\n      dup4\n      mload\n        /* \"NFTStaking.sol\":4399:4412  _stakedTokens */\n      dup5\n      swap1\n        /* \"NFTStaking.sol\":4413:4419  _index */\n      dup5\n      swap1\n        /* \"NFTStaking.sol\":4399:4420  _stakedTokens[_index] */\n      dup2\n      lt\n      tag_180\n      jumpi\n      tag_180\n      tag_111\n      jump\t// in\n    tag_180:\n      0x20\n      mul\n      0x20\n      add\n      add\n        /* \"NFTStaking.sol\":4399:4455  _stakedTokens[_index] = stakers[_staker].stakedTokens[i] */\n      dup2\n      swap1\n      mstore\n      pop\n        /* \"NFTStaking.sol\":4480:4488  _index++ */\n      dup2\n      dup1\n      tag_181\n      swap1\n      tag_126\n      jump\t// in\n    tag_181:\n      swap3\n      pop\n      pop\n        /* \"NFTStaking.sol\":4316:4510  if(stakers[_staker].stakedTokens[i].staker != address(0)) {... */\n    tag_175:\n        /* \"NFTStaking.sol\":4290:4293  i++ */\n      dup1\n      tag_182\n      dup2\n      tag_126\n      jump\t// in\n    tag_182:\n      swap2\n      pop\n      pop\n        /* \"NFTStaking.sol\":4229:4527  for(uint256 i = 0; i < stakers[_staker].stakedTokens.length; i++) {... */\n      jump(tag_169)\n    tag_170:\n      pop\n        /* \"NFTStaking.sol\":4550:4563  _stakedTokens */\n      swap1\n      swap4\n        /* \"NFTStaking.sol\":3942:4644  function getStakeTokens(address _staker) public view returns(StakedToken[] memory) {... */\n      swap3\n      pop\n      pop\n      pop\n      jump\t// out\n        /* \"NFTStaking.sol\":4038:4635  if(stakers[_staker].amountStaked > 0) {... */\n    tag_161:\n        /* \"NFTStaking.sol\":4603:4623  new StakedToken[](0) */\n      0x40\n      dup1\n      mload\n        /* \"NFTStaking.sol\":4621:4622  0 */\n      0x00\n        /* \"NFTStaking.sol\":4603:4623  new StakedToken[](0) */\n      dup1\n      dup3\n      mstore\n      0x20\n      dup3\n      add\n      swap1\n      swap3\n      mstore\n      swap1\n      jump(tag_186)\n    tag_187:\n      0x40\n      dup1\n      mload\n      dup1\n      dup3\n      add\n      swap1\n      swap2\n      mstore\n      0x00\n      dup1\n      dup3\n      mstore\n      0x20\n      dup3\n      add\n      mstore\n      dup2\n      mstore\n      0x20\n      add\n      swap1\n      0x01\n      swap1\n      sub\n      swap1\n      dup2\n      tag_187\n      jumpi\n      swap1\n      pop\n    tag_186:\n      pop\n        /* \"NFTStaking.sol\":4596:4623  return new StakedToken[](0) */\n      swap3\n        /* \"NFTStaking.sol\":3942:4644  function getStakeTokens(address _staker) public view returns(StakedToken[] memory) {... */\n      swap2\n      pop\n      pop\n      jump\t// out\n        /* \"NFTStaking.sol\":1284:1879  function stake (uint256 _tokenId) external nonReentrant {... */\n    tag_77:\n        /* \"@openzeppelin/contracts/security/ReentrancyGuard.sol\":2261:2282   */\n      tag_190\n        /* \"@openzeppelin/contracts/security/ReentrancyGuard.sol\":2261:2280   */\n      tag_96\n        /* \"@openzeppelin/contracts/security/ReentrancyGuard.sol\":2261:2282   */\n      jump\t// in\n    tag_190:\n        /* \"NFTStaking.sol\":1363:1373  msg.sender */\n      caller\n        /* \"NFTStaking.sol\":1390:1391  0 */\n      0x00\n        /* \"NFTStaking.sol\":1355:1374  stakers[msg.sender] */\n      swap1\n      dup2\n      mstore\n        /* \"NFTStaking.sol\":1355:1362  stakers */\n      0x02\n        /* \"NFTStaking.sol\":1355:1374  stakers[msg.sender] */\n      0x20\n      mstore\n      0x40\n      swap1\n      keccak256\n        /* \"NFTStaking.sol\":1355:1387  stakers[msg.sender].amountStaked */\n      sload\n        /* \"NFTStaking.sol\":1355:1391  stakers[msg.sender].amountStaked > 0 */\n      iszero\n        /* \"NFTStaking.sol\":1352:1532  if(stakers[msg.sender].amountStaked > 0) {... */\n      tag_192\n      jumpi\n        /* \"NFTStaking.sol\":1410:1425  uint256 rewards */\n      0x00\n        /* \"NFTStaking.sol\":1428:1456  calculateRewards(msg.sender) */\n      tag_193\n        /* \"NFTStaking.sol\":1445:1455  msg.sender */\n      caller\n        /* \"NFTStaking.sol\":1428:1444  calculateRewards */\n      tag_43\n        /* \"NFTStaking.sol\":1428:1456  calculateRewards(msg.sender) */\n      jump\t// in\n    tag_193:\n        /* \"NFTStaking.sol\":1481:1491  msg.sender */\n      caller\n        /* \"NFTStaking.sol\":1473:1492  stakers[msg.sender] */\n      0x00\n      swap1\n      dup2\n      mstore\n        /* \"NFTStaking.sol\":1473:1480  stakers */\n      0x02\n        /* \"NFTStaking.sol\":1473:1492  stakers[msg.sender] */\n      0x20\n      mstore\n      0x40\n      dup2\n      keccak256\n        /* \"NFTStaking.sol\":1473:1507  stakers[msg.sender].unclaimReawrds */\n      0x03\n      add\n        /* \"NFTStaking.sol\":1473:1518  stakers[msg.sender].unclaimReawrds += rewards */\n      dup1\n      sload\n        /* \"NFTStaking.sol\":1410:1456  uint256 rewards = calculateRewards(msg.sender) */\n      swap3\n      swap4\n      pop\n      dup4\n      swap3\n        /* \"NFTStaking.sol\":1473:1507  stakers[msg.sender].unclaimReawrds */\n      swap1\n      swap2\n        /* \"NFTStaking.sol\":1473:1492  stakers[msg.sender] */\n      swap1\n        /* \"NFTStaking.sol\":1473:1518  stakers[msg.sender].unclaimReawrds += rewards */\n      tag_194\n      swap1\n        /* \"NFTStaking.sol\":1410:1456  uint256 rewards = calculateRewards(msg.sender) */\n      dup5\n      swap1\n        /* \"NFTStaking.sol\":1473:1518  stakers[msg.sender].unclaimReawrds += rewards */\n      tag_103\n      jump\t// in\n    tag_194:\n      swap1\n      swap2\n      sstore\n      pop\n      pop\n      pop\n        /* \"NFTStaking.sol\":1352:1532  if(stakers[msg.sender].amountStaked > 0) {... */\n    tag_192:\n        /* \"NFTStaking.sol\":1552:1562  msg.sender */\n      caller\n        /* \"NFTStaking.sol\":1544:1563  stakers[msg.sender] */\n      0x00\n      swap1\n      dup2\n      mstore\n        /* \"NFTStaking.sol\":1544:1551  stakers */\n      0x02\n        /* \"NFTStaking.sol\":1544:1563  stakers[msg.sender] */\n      0x20\n      mstore\n      0x40\n      dup2\n      keccak256\n        /* \"NFTStaking.sol\":1544:1581  stakers[msg.sender].amountStaked += 1 */\n      dup1\n      sload\n        /* \"NFTStaking.sol\":1580:1581  1 */\n      0x01\n      swap3\n        /* \"NFTStaking.sol\":1544:1563  stakers[msg.sender] */\n      swap1\n        /* \"NFTStaking.sol\":1544:1581  stakers[msg.sender].amountStaked += 1 */\n      tag_195\n      swap1\n        /* \"NFTStaking.sol\":1580:1581  1 */\n      dup5\n      swap1\n        /* \"NFTStaking.sol\":1544:1581  stakers[msg.sender].amountStaked += 1 */\n      tag_103\n      jump\t// in\n    tag_195:\n      swap1\n      swap2\n      sstore\n      pop\n      pop\n        /* \"NFTStaking.sol\":1602:1612  msg.sender */\n      caller\n        /* \"NFTStaking.sol\":1594:1613  stakers[msg.sender] */\n      0x00\n      dup2\n      dup2\n      mstore\n        /* \"NFTStaking.sol\":1594:1601  stakers */\n      0x02\n        /* \"NFTStaking.sol\":1594:1613  stakers[msg.sender] */\n      0x20\n      dup2\n      dup2\n      mstore\n      0x40\n      dup1\n      dup5\n      keccak256\n        /* \"NFTStaking.sol\":1633:1648  block.timestamp */\n      timestamp\n        /* \"NFTStaking.sol\":1594:1630  stakers[msg.sender].timeOfLastUpdate */\n      dup2\n      dup6\n      add\n        /* \"NFTStaking.sol\":1594:1648  stakers[msg.sender].timeOfLastUpdate = block.timestamp */\n      sstore\n        /* \"NFTStaking.sol\":1699:1732  StakedToken(msg.sender, _tokenId) */\n      dup2\n      mload\n      dup1\n      dup4\n      add\n      dup4\n      mstore\n      dup7\n      dup2\n      mstore\n      dup1\n      dup5\n      add\n      dup9\n      dup2\n      mstore\n        /* \"NFTStaking.sol\":1661:1693  stakers[msg.sender].stakedTokens */\n      0x01\n      swap3\n      dup4\n      add\n        /* \"NFTStaking.sol\":1661:1733  stakers[msg.sender].stakedTokens.push(StakedToken(msg.sender, _tokenId)) */\n      dup1\n      sload\n      dup1\n      dup6\n      add\n      dup3\n      sstore\n      swap1\n      dup9\n      mstore\n      dup6\n      dup9\n      keccak256\n      swap3\n      mload\n      swap7\n      mul\n      swap1\n      swap2\n      add\n      dup1\n      sload\n      not(sub(shl(0xa0, 0x01), 0x01))\n      swap1\n      dup2\n      and\n      sub(shl(0xa0, 0x01), 0x01)\n      swap8\n      dup9\n      and\n      or\n      dup3\n      sstore\n      swap2\n      mload\n      swap1\n      dup4\n      add\n      sstore\n        /* \"NFTStaking.sol\":1746:1769  stakerAddress[_tokenId] */\n      dup8\n      dup7\n      mstore\n        /* \"NFTStaking.sol\":1746:1759  stakerAddress */\n      0x03\n        /* \"NFTStaking.sol\":1746:1769  stakerAddress[_tokenId] */\n      swap1\n      swap4\n      mstore\n      dup2\n      dup6\n      keccak256\n        /* \"NFTStaking.sol\":1746:1782  stakerAddress[_tokenId] = msg.sender */\n      dup1\n      sload\n      swap1\n      swap4\n      and\n      dup7\n      or\n      swap1\n      swap3\n      sstore\n        /* \"NFTStaking.sol\":1795:1869  nftCollection.safeTransferFrom(msg.sender, address(this), _tokenId, 1, \"\") */\n      mload\n      shl(0xe1, 0x79212195)\n      dup2\n      mstore\n      0x04\n      dup2\n      add\n        /* \"#utility.yul\":5193:5227   */\n      swap5\n      swap1\n      swap5\n      mstore\n        /* \"NFTStaking.sol\":1846:1850  this */\n      address\n        /* \"#utility.yul\":5243:5261   */\n      0x24\n      dup6\n      add\n        /* \"#utility.yul\":5236:5279   */\n      mstore\n        /* \"#utility.yul\":5295:5313   */\n      0x44\n      dup5\n      add\n        /* \"#utility.yul\":5288:5322   */\n      dup6\n      swap1\n      mstore\n        /* \"#utility.yul\":5338:5356   */\n      0x64\n      dup5\n      add\n        /* \"#utility.yul\":5331:5365   */\n      mstore\n        /* \"#utility.yul\":5402:5405   */\n      0xa0\n        /* \"#utility.yul\":5381:5400   */\n      0x84\n      dup5\n      add\n        /* \"#utility.yul\":5374:5406   */\n      mstore\n        /* \"#utility.yul\":5422:5441   */\n      0xa4\n      dup4\n      add\n        /* \"#utility.yul\":5415:5445   */\n      swap2\n      swap1\n      swap2\n      mstore\n        /* \"NFTStaking.sol\":1795:1808  nftCollection */\n      immutable(\"0x8e8fab5f003314da8d1873ea7720e8d9f47650136d916064d1edb8a11d682624\")\n        /* \"NFTStaking.sol\":1795:1825  nftCollection.safeTransferFrom */\n      and\n      swap1\n      0xf242432a\n      swap1\n        /* \"#utility.yul\":5462:5481   */\n      0xc4\n      add\n        /* \"NFTStaking.sol\":1795:1869  nftCollection.safeTransferFrom(msg.sender, address(this), _tokenId, 1, \"\") */\n      0x00\n      mload(0x40)\n      dup1\n      dup4\n      sub\n      dup2\n      0x00\n      dup8\n      dup1\n      extcodesize\n      iszero\n      dup1\n      iszero\n      tag_198\n      jumpi\n      0x00\n      dup1\n      revert\n    tag_198:\n      pop\n      gas\n      call\n      iszero\n      dup1\n      iszero\n      tag_200\n      jumpi\n      returndatasize\n      0x00\n      dup1\n      returndatacopy\n      revert(0x00, returndatasize)\n    tag_200:\n      pop\n      pop\n      pop\n      pop\n        /* \"@openzeppelin/contracts/security/ReentrancyGuard.sol\":2303:2323   */\n      tag_132\n        /* \"@openzeppelin/contracts/security/ReentrancyGuard.sol\":1716:1717   */\n      0x01\n        /* \"@openzeppelin/contracts/security/ReentrancyGuard.sol\":2809:2816   */\n      0x00\n        /* \"@openzeppelin/contracts/security/ReentrancyGuard.sol\":2809:2831   */\n      sstore\n        /* \"@openzeppelin/contracts/security/ReentrancyGuard.sol\":2629:2838   */\n      jump\n        /* \"NFTStaking.sol\":3605:3806  function availableRewards(address _staker) external view returns(uint256) {... */\n    tag_91:\n      sub(shl(0xa0, 0x01), 0x01)\n        /* \"NFTStaking.sol\":3738:3754  stakers[_staker] */\n      dup2\n      and\n        /* \"NFTStaking.sol\":3670:3677  uint256 */\n      0x00\n        /* \"NFTStaking.sol\":3738:3754  stakers[_staker] */\n      swap1\n      dup2\n      mstore\n        /* \"NFTStaking.sol\":3738:3745  stakers */\n      0x02\n        /* \"NFTStaking.sol\":3738:3754  stakers[_staker] */\n      0x20\n      mstore\n      0x40\n      dup2\n      keccak256\n        /* \"NFTStaking.sol\":3738:3769  stakers[_staker].unclaimReawrds */\n      0x03\n      add\n      sload\n        /* \"NFTStaking.sol\":3670:3677  uint256 */\n      dup2\n      swap1\n        /* \"NFTStaking.sol\":3710:3735  calculateRewards(_staker) */\n      tag_205\n        /* \"NFTStaking.sol\":3746:3753  _staker */\n      dup5\n        /* \"NFTStaking.sol\":3710:3726  calculateRewards */\n      tag_43\n        /* \"NFTStaking.sol\":3710:3735  calculateRewards(_staker) */\n      jump\t// in\n    tag_205:\n        /* \"NFTStaking.sol\":3710:3769  calculateRewards(_staker) + stakers[_staker].unclaimReawrds */\n      tag_206\n      swap2\n      swap1\n      tag_103\n      jump\t// in\n    tag_206:\n        /* \"NFTStaking.sol\":3692:3769  uint256 rewards = calculateRewards(_staker) + stakers[_staker].unclaimReawrds */\n      swap4\n        /* \"NFTStaking.sol\":3605:3806  function availableRewards(address _staker) external view returns(uint256) {... */\n      swap3\n      pop\n      pop\n      pop\n      jump\t// out\n        /* \"@openzeppelin/contracts/security/ReentrancyGuard.sol\":2336:2623   */\n    tag_96:\n        /* \"@openzeppelin/contracts/security/ReentrancyGuard.sol\":1759:1760   */\n      0x02\n        /* \"@openzeppelin/contracts/security/ReentrancyGuard.sol\":2468:2475   */\n      sload(0x00)\n        /* \"@openzeppelin/contracts/security/ReentrancyGuard.sol\":2468:2487   */\n      sub\n        /* \"@openzeppelin/contracts/security/ReentrancyGuard.sol\":2460:2523   */\n      tag_208\n      jumpi\n      mload(0x40)\n      shl(0xe5, 0x461bcd)\n      dup2\n      mstore\n        /* \"#utility.yul\":6626:6628   */\n      0x20\n        /* \"@openzeppelin/contracts/security/ReentrancyGuard.sol\":2460:2523   */\n      0x04\n      dup3\n      add\n        /* \"#utility.yul\":6608:6629   */\n      mstore\n        /* \"#utility.yul\":6665:6667   */\n      0x1f\n        /* \"#utility.yul\":6645:6663   */\n      0x24\n      dup3\n      add\n        /* \"#utility.yul\":6638:6668   */\n      mstore\n        /* \"#utility.yul\":6704:6737   */\n      0x5265656e7472616e637947756172643a207265656e7472616e742063616c6c00\n        /* \"#utility.yul\":6684:6702   */\n      0x44\n      dup3\n      add\n        /* \"#utility.yul\":6677:6738   */\n      mstore\n        /* \"#utility.yul\":6755:6773   */\n      0x64\n      add\n        /* \"@openzeppelin/contracts/security/ReentrancyGuard.sol\":2460:2523   */\n      tag_99\n        /* \"#utility.yul\":6424:6779   */\n      jump\n        /* \"@openzeppelin/contracts/security/ReentrancyGuard.sol\":2460:2523   */\n    tag_208:\n        /* \"@openzeppelin/contracts/security/ReentrancyGuard.sol\":1759:1760   */\n      0x02\n        /* \"@openzeppelin/contracts/security/ReentrancyGuard.sol\":2598:2605   */\n      0x00\n        /* \"@openzeppelin/contracts/security/ReentrancyGuard.sol\":2598:2616   */\n      sstore\n        /* \"@openzeppelin/contracts/security/ReentrancyGuard.sol\":2336:2623   */\n      jump\t// out\n        /* \"@openzeppelin/contracts/token/ERC20/utils/SafeERC20.sol\":763:968   */\n    tag_143:\n        /* \"@openzeppelin/contracts/token/ERC20/utils/SafeERC20.sol\":902:960   */\n      0x40\n      dup1\n      mload\n      sub(shl(0xa0, 0x01), 0x01)\n        /* \"#utility.yul\":6976:7031   */\n      dup5\n      and\n        /* \"@openzeppelin/contracts/token/ERC20/utils/SafeERC20.sol\":902:960   */\n      0x24\n      dup3\n      add\n        /* \"#utility.yul\":6958:7032   */\n      mstore\n        /* \"#utility.yul\":7048:7066   */\n      0x44\n      dup1\n      dup3\n      add\n        /* \"#utility.yul\":7041:7075   */\n      dup5\n      swap1\n      mstore\n        /* \"@openzeppelin/contracts/token/ERC20/utils/SafeERC20.sol\":902:960   */\n      dup3\n      mload\n      dup1\n      dup4\n      sub\n      swap1\n      swap2\n      add\n      dup2\n      mstore\n        /* \"#utility.yul\":6931:6949   */\n      0x64\n      swap1\n      swap2\n      add\n        /* \"@openzeppelin/contracts/token/ERC20/utils/SafeERC20.sol\":902:960   */\n      swap1\n      swap2\n      mstore\n      0x20\n      dup2\n      add\n      dup1\n      mload\n      0xffffffffffffffffffffffffffffffffffffffffffffffffffffffff\n      and\n      shl(0xe0, 0xa9059cbb)\n      or\n      swap1\n      mstore\n        /* \"@openzeppelin/contracts/token/ERC20/utils/SafeERC20.sol\":875:961   */\n      tag_213\n      swap1\n        /* \"@openzeppelin/contracts/token/ERC20/utils/SafeERC20.sol\":895:900   */\n      dup5\n      swap1\n        /* \"@openzeppelin/contracts/token/ERC20/utils/SafeERC20.sol\":875:894   */\n      tag_216\n        /* \"@openzeppelin/contracts/token/ERC20/utils/SafeERC20.sol\":875:961   */\n      jump\t// in\n    tag_213:\n        /* \"@openzeppelin/contracts/token/ERC20/utils/SafeERC20.sol\":763:968   */\n      pop\n      pop\n      pop\n      jump\t// out\n        /* \"@openzeppelin/contracts/token/ERC20/utils/SafeERC20.sol\":3747:4453   */\n    tag_216:\n        /* \"@openzeppelin/contracts/token/ERC20/utils/SafeERC20.sol\":4166:4189   */\n      0x00\n        /* \"@openzeppelin/contracts/token/ERC20/utils/SafeERC20.sol\":4192:4261   */\n      tag_218\n        /* \"@openzeppelin/contracts/token/ERC20/utils/SafeERC20.sol\":4220:4224   */\n      dup3\n        /* \"@openzeppelin/contracts/token/ERC20/utils/SafeERC20.sol\":4192:4261   */\n      mload(0x40)\n      dup1\n      0x40\n      add\n      0x40\n      mstore\n      dup1\n      0x20\n      dup2\n      mstore\n      0x20\n      add\n      0x5361666545524332303a206c6f772d6c6576656c2063616c6c206661696c6564\n      dup2\n      mstore\n      pop\n        /* \"@openzeppelin/contracts/token/ERC20/utils/SafeERC20.sol\":4200:4205   */\n      dup6\n      sub(shl(0xa0, 0x01), 0x01)\n        /* \"@openzeppelin/contracts/token/ERC20/utils/SafeERC20.sol\":4192:4219   */\n      and\n      tag_219\n      swap1\n        /* \"@openzeppelin/contracts/token/ERC20/utils/SafeERC20.sol\":4192:4261   */\n      swap3\n      swap2\n      swap1\n      0xffffffff\n      and\n      jump\t// in\n    tag_218:\n        /* \"@openzeppelin/contracts/token/ERC20/utils/SafeERC20.sol\":4275:4292   */\n      dup1\n      mload\n        /* \"@openzeppelin/contracts/token/ERC20/utils/SafeERC20.sol\":4166:4261   */\n      swap1\n      swap2\n      pop\n        /* \"@openzeppelin/contracts/token/ERC20/utils/SafeERC20.sol\":4275:4296   */\n      iszero\n        /* \"@openzeppelin/contracts/token/ERC20/utils/SafeERC20.sol\":4271:4447   */\n      tag_213\n      jumpi\n        /* \"@openzeppelin/contracts/token/ERC20/utils/SafeERC20.sol\":4370:4380   */\n      dup1\n        /* \"@openzeppelin/contracts/token/ERC20/utils/SafeERC20.sol\":4359:4389   */\n      dup1\n      0x20\n      add\n      swap1\n      mload\n      dup2\n      add\n      swap1\n      tag_221\n      swap2\n      swap1\n      tag_222\n      jump\t// in\n    tag_221:\n        /* \"@openzeppelin/contracts/token/ERC20/utils/SafeERC20.sol\":4351:4436   */\n      tag_213\n      jumpi\n      mload(0x40)\n      shl(0xe5, 0x461bcd)\n      dup2\n      mstore\n        /* \"#utility.yul\":7570:7572   */\n      0x20\n        /* \"@openzeppelin/contracts/token/ERC20/utils/SafeERC20.sol\":4351:4436   */\n      0x04\n      dup3\n      add\n        /* \"#utility.yul\":7552:7573   */\n      mstore\n        /* \"#utility.yul\":7609:7611   */\n      0x2a\n        /* \"#utility.yul\":7589:7607   */\n      0x24\n      dup3\n      add\n        /* \"#utility.yul\":7582:7612   */\n      mstore\n        /* \"#utility.yul\":7648:7682   */\n      0x5361666545524332303a204552433230206f7065726174696f6e20646964206e\n        /* \"#utility.yul\":7628:7646   */\n      0x44\n      dup3\n      add\n        /* \"#utility.yul\":7621:7683   */\n      mstore\n        /* \"#utility.yul\":7719:7731   */\n      0x6f74207375636365656400000000000000000000000000000000000000000000\n        /* \"#utility.yul\":7699:7717   */\n      0x64\n      dup3\n      add\n        /* \"#utility.yul\":7692:7732   */\n      mstore\n        /* \"#utility.yul\":7749:7768   */\n      0x84\n      add\n        /* \"@openzeppelin/contracts/token/ERC20/utils/SafeERC20.sol\":4351:4436   */\n      tag_99\n        /* \"#utility.yul\":7368:7774   */\n      jump\n        /* \"@openzeppelin/contracts/utils/Address.sol\":3873:4096   */\n    tag_219:\n        /* \"@openzeppelin/contracts/utils/Address.sol\":4006:4018   */\n      0x60\n        /* \"@openzeppelin/contracts/utils/Address.sol\":4037:4089   */\n      tag_151\n        /* \"@openzeppelin/contracts/utils/Address.sol\":4059:4065   */\n      dup5\n        /* \"@openzeppelin/contracts/utils/Address.sol\":4067:4071   */\n      dup5\n        /* \"@openzeppelin/contracts/utils/Address.sol\":4073:4074   */\n      0x00\n        /* \"@openzeppelin/contracts/utils/Address.sol\":4076:4088   */\n      dup6\n        /* \"@openzeppelin/contracts/utils/Address.sol\":4006:4018   */\n      dup6\n        /* \"@openzeppelin/contracts/utils/Address.sol\":5241:5253   */\n      0x00\n        /* \"@openzeppelin/contracts/utils/Address.sol\":5255:5278   */\n      dup1\n        /* \"@openzeppelin/contracts/utils/Address.sol\":5282:5288   */\n      dup7\n      sub(shl(0xa0, 0x01), 0x01)\n        /* \"@openzeppelin/contracts/utils/Address.sol\":5282:5293   */\n      and\n        /* \"@openzeppelin/contracts/utils/Address.sol\":5301:5306   */\n      dup6\n        /* \"@openzeppelin/contracts/utils/Address.sol\":5308:5312   */\n      dup8\n        /* \"@openzeppelin/contracts/utils/Address.sol\":5282:5313   */\n      mload(0x40)\n      tag_233\n      swap2\n      swap1\n      tag_234\n      jump\t// in\n    tag_233:\n      0x00\n      mload(0x40)\n      dup1\n      dup4\n      sub\n      dup2\n      dup6\n      dup8\n      gas\n      call\n      swap3\n      pop\n      pop\n      pop\n      returndatasize\n      dup1\n      0x00\n      dup2\n      eq\n      tag_237\n      jumpi\n      mload(0x40)\n      swap2\n      pop\n      and(add(returndatasize, 0x3f), not(0x1f))\n      dup3\n      add\n      0x40\n      mstore\n      returndatasize\n      dup3\n      mstore\n      returndatasize\n      0x00\n      0x20\n      dup5\n      add\n      returndatacopy\n      jump(tag_236)\n    tag_237:\n      0x60\n      swap2\n      pop\n    tag_236:\n      pop\n        /* \"@openzeppelin/contracts/utils/Address.sol\":5240:5313   */\n      swap2\n      pop\n      swap2\n      pop\n        /* \"@openzeppelin/contracts/utils/Address.sol\":5330:5399   */\n      tag_238\n        /* \"@openzeppelin/contracts/utils/Address.sol\":5357:5363   */\n      dup8\n        /* \"@openzeppelin/contracts/utils/Address.sol\":5365:5372   */\n      dup4\n        /* \"@openzeppelin/contracts/utils/Address.sol\":5374:5384   */\n      dup4\n        /* \"@openzeppelin/contracts/utils/Address.sol\":5386:5398   */\n      dup8\n        /* \"@openzeppelin/contracts/utils/Address.sol\":5330:5356   */\n      tag_239\n        /* \"@openzeppelin/contracts/utils/Address.sol\":5330:5399   */\n      jump\t// in\n    tag_238:\n        /* \"@openzeppelin/contracts/utils/Address.sol\":5323:5399   */\n      swap8\n        /* \"@openzeppelin/contracts/utils/Address.sol\":4960:5406   */\n      swap7\n      pop\n      pop\n      pop\n      pop\n      pop\n      pop\n      pop\n      jump\t// out\n        /* \"@openzeppelin/contracts/utils/Address.sol\":7466:8094   */\n    tag_239:\n        /* \"@openzeppelin/contracts/utils/Address.sol\":7646:7658   */\n      0x60\n        /* \"@openzeppelin/contracts/utils/Address.sol\":7674:7681   */\n      dup4\n        /* \"@openzeppelin/contracts/utils/Address.sol\":7670:8088   */\n      iszero\n      tag_241\n      jumpi\n        /* \"@openzeppelin/contracts/utils/Address.sol\":7701:7711   */\n      dup3\n        /* \"@openzeppelin/contracts/utils/Address.sol\":7701:7718   */\n      mload\n        /* \"@openzeppelin/contracts/utils/Address.sol\":7722:7723   */\n      0x00\n        /* \"@openzeppelin/contracts/utils/Address.sol\":7701:7723   */\n      sub\n        /* \"@openzeppelin/contracts/utils/Address.sol\":7697:7983   */\n      tag_245\n      jumpi\n      sub(shl(0xa0, 0x01), 0x01)\n        /* \"@openzeppelin/contracts/utils/Address.sol\":1465:1484   */\n      dup6\n      and\n      extcodesize\n        /* \"@openzeppelin/contracts/utils/Address.sol\":7908:7968   */\n      tag_245\n      jumpi\n      mload(0x40)\n      shl(0xe5, 0x461bcd)\n      dup2\n      mstore\n        /* \"#utility.yul\":8935:8937   */\n      0x20\n        /* \"@openzeppelin/contracts/utils/Address.sol\":7908:7968   */\n      0x04\n      dup3\n      add\n        /* \"#utility.yul\":8917:8938   */\n      mstore\n        /* \"#utility.yul\":8974:8976   */\n      0x1d\n        /* \"#utility.yul\":8954:8972   */\n      0x24\n      dup3\n      add\n        /* \"#utility.yul\":8947:8977   */\n      mstore\n        /* \"#utility.yul\":9013:9044   */\n      0x416464726573733a2063616c6c20746f206e6f6e2d636f6e7472616374000000\n        /* \"#utility.yul\":8993:9011   */\n      0x44\n      dup3\n      add\n        /* \"#utility.yul\":8986:9045   */\n      mstore\n        /* \"#utility.yul\":9062:9080   */\n      0x64\n      add\n        /* \"@openzeppelin/contracts/utils/Address.sol\":7908:7968   */\n      tag_99\n        /* \"#utility.yul\":8733:9086   */\n      jump\n        /* \"@openzeppelin/contracts/utils/Address.sol\":7908:7968   */\n    tag_245:\n      pop\n        /* \"@openzeppelin/contracts/utils/Address.sol\":8003:8013   */\n      dup2\n        /* \"@openzeppelin/contracts/utils/Address.sol\":7996:8013   */\n      jump(tag_151)\n        /* \"@openzeppelin/contracts/utils/Address.sol\":7670:8088   */\n    tag_241:\n        /* \"@openzeppelin/contracts/utils/Address.sol\":8044:8077   */\n      tag_151\n        /* \"@openzeppelin/contracts/utils/Address.sol\":8052:8062   */\n      dup4\n        /* \"@openzeppelin/contracts/utils/Address.sol\":8064:8076   */\n      dup4\n        /* \"@openzeppelin/contracts/utils/Address.sol\":8775:8792   */\n      dup2\n      mload\n        /* \"@openzeppelin/contracts/utils/Address.sol\":8775:8796   */\n      iszero\n        /* \"@openzeppelin/contracts/utils/Address.sol\":8771:9150   */\n      tag_253\n      jumpi\n        /* \"@openzeppelin/contracts/utils/Address.sol\":9003:9013   */\n      dup2\n        /* \"@openzeppelin/contracts/utils/Address.sol\":8997:9014   */\n      mload\n        /* \"@openzeppelin/contracts/utils/Address.sol\":9059:9074   */\n      dup1\n        /* \"@openzeppelin/contracts/utils/Address.sol\":9046:9056   */\n      dup4\n        /* \"@openzeppelin/contracts/utils/Address.sol\":9042:9044   */\n      0x20\n        /* \"@openzeppelin/contracts/utils/Address.sol\":9038:9057   */\n      add\n        /* \"@openzeppelin/contracts/utils/Address.sol\":9031:9075   */\n      revert\n        /* \"@openzeppelin/contracts/utils/Address.sol\":8771:9150   */\n    tag_253:\n        /* \"@openzeppelin/contracts/utils/Address.sol\":9126:9138   */\n      dup1\n        /* \"@openzeppelin/contracts/utils/Address.sol\":9119:9139   */\n      mload(0x40)\n      shl(0xe5, 0x461bcd)\n      dup2\n      mstore\n      0x04\n      add\n      tag_99\n      swap2\n      swap1\n      tag_256\n      jump\t// in\n        /* \"#utility.yul\":14:323   */\n    tag_26:\n        /* \"#utility.yul\":73:79   */\n      0x00\n        /* \"#utility.yul\":126:128   */\n      0x20\n        /* \"#utility.yul\":114:123   */\n      dup3\n        /* \"#utility.yul\":105:112   */\n      dup5\n        /* \"#utility.yul\":101:124   */\n      sub\n        /* \"#utility.yul\":97:129   */\n      slt\n        /* \"#utility.yul\":94:146   */\n      iszero\n      tag_262\n      jumpi\n        /* \"#utility.yul\":142:143   */\n      0x00\n        /* \"#utility.yul\":139:140   */\n      dup1\n        /* \"#utility.yul\":132:144   */\n      revert\n        /* \"#utility.yul\":94:146   */\n    tag_262:\n        /* \"#utility.yul\":181:190   */\n      dup2\n        /* \"#utility.yul\":168:191   */\n      calldataload\n      sub(shl(0xa0, 0x01), 0x01)\n        /* \"#utility.yul\":224:229   */\n      dup2\n        /* \"#utility.yul\":220:274   */\n      and\n        /* \"#utility.yul\":213:218   */\n      dup2\n        /* \"#utility.yul\":210:275   */\n      eq\n        /* \"#utility.yul\":200:293   */\n      tag_206\n      jumpi\n        /* \"#utility.yul\":289:290   */\n      0x00\n        /* \"#utility.yul\":286:287   */\n      dup1\n        /* \"#utility.yul\":279:291   */\n      revert\n        /* \"#utility.yul\":510:690   */\n    tag_32:\n        /* \"#utility.yul\":569:575   */\n      0x00\n        /* \"#utility.yul\":622:624   */\n      0x20\n        /* \"#utility.yul\":610:619   */\n      dup3\n        /* \"#utility.yul\":601:608   */\n      dup5\n        /* \"#utility.yul\":597:620   */\n      sub\n        /* \"#utility.yul\":593:625   */\n      slt\n        /* \"#utility.yul\":590:642   */\n      iszero\n      tag_266\n      jumpi\n        /* \"#utility.yul\":638:639   */\n      0x00\n        /* \"#utility.yul\":635:636   */\n      dup1\n        /* \"#utility.yul\":628:640   */\n      revert\n        /* \"#utility.yul\":590:642   */\n    tag_266:\n      pop\n        /* \"#utility.yul\":661:684   */\n      calldataload\n      swap2\n        /* \"#utility.yul\":510:690   */\n      swap1\n      pop\n      jump\t// out\n        /* \"#utility.yul\":1443:2353   */\n    tag_53:\n        /* \"#utility.yul\":1608:1610   */\n      0x20\n        /* \"#utility.yul\":1619:1640   */\n      dup1\n      dup3\n      mstore\n        /* \"#utility.yul\":1718:1731   */\n      dup3\n      mload\n        /* \"#utility.yul\":1698:1716   */\n      dup3\n      dup3\n      add\n        /* \"#utility.yul\":1691:1732   */\n      mstore\n        /* \"#utility.yul\":1767:1782   */\n      dup3\n      dup2\n      add\n        /* \"#utility.yul\":1761:1783   */\n      mload\n        /* \"#utility.yul\":1819:1823   */\n      0x80\n        /* \"#utility.yul\":1814:1816   */\n      0x40\n        /* \"#utility.yul\":1799:1817   */\n      dup5\n      add\n        /* \"#utility.yul\":1792:1824   */\n      mstore\n        /* \"#utility.yul\":1873:1892   */\n      dup1\n      mload\n        /* \"#utility.yul\":1678:1681   */\n      0xa0\n        /* \"#utility.yul\":1663:1682   */\n      dup5\n      add\n        /* \"#utility.yul\":1901:1923   */\n      dup2\n      swap1\n      mstore\n        /* \"#utility.yul\":1579:1583   */\n      0x00\n      swap3\n        /* \"#utility.yul\":1608:1610   */\n      swap2\n        /* \"#utility.yul\":1981:2002   */\n      dup3\n      add\n      swap1\n        /* \"#utility.yul\":1579:1583   */\n      dup4\n      swap1\n        /* \"#utility.yul\":1954:1957   */\n      0xc0\n        /* \"#utility.yul\":1939:1958   */\n      dup7\n      add\n      swap1\n        /* \"#utility.yul\":2030:2207   */\n    tag_271:\n        /* \"#utility.yul\":2044:2050   */\n      dup1\n        /* \"#utility.yul\":2041:2042   */\n      dup4\n        /* \"#utility.yul\":2038:2051   */\n      lt\n        /* \"#utility.yul\":2030:2207   */\n      iszero\n      tag_273\n      jumpi\n        /* \"#utility.yul\":2140:2153   */\n      dup4\n      mload\n        /* \"#utility.yul\":1279:1292   */\n      dup1\n      mload\n      sub(shl(0xa0, 0x01), 0x01)\n        /* \"#utility.yul\":1275:1337   */\n      and\n        /* \"#utility.yul\":1263:1338   */\n      dup4\n      mstore\n        /* \"#utility.yul\":1388:1392   */\n      0x20\n        /* \"#utility.yul\":1376:1393   */\n      swap1\n      dup2\n      add\n        /* \"#utility.yul\":1370:1394   */\n      mload\n        /* \"#utility.yul\":1354:1368   */\n      swap1\n      dup4\n      add\n        /* \"#utility.yul\":1347:1395   */\n      mstore\n        /* \"#utility.yul\":1427:1431   */\n      0x40\n        /* \"#utility.yul\":1418:1432   */\n      dup3\n      add\n        /* \"#utility.yul\":2093:2159   */\n      swap2\n      pop\n        /* \"#utility.yul\":2194:2196   */\n      dup5\n        /* \"#utility.yul\":2186:2192   */\n      dup5\n        /* \"#utility.yul\":2182:2197   */\n      add\n        /* \"#utility.yul\":2172:2197   */\n      swap4\n      pop\n        /* \"#utility.yul\":2066:2067   */\n      0x01\n        /* \"#utility.yul\":2063:2064   */\n      dup4\n        /* \"#utility.yul\":2059:2068   */\n      add\n        /* \"#utility.yul\":2054:2068   */\n      swap3\n      pop\n        /* \"#utility.yul\":2030:2207   */\n      jump(tag_271)\n    tag_273:\n        /* \"#utility.yul\":2034:2037   */\n      pop\n        /* \"#utility.yul\":2261:2263   */\n      0x40\n        /* \"#utility.yul\":2253:2259   */\n      dup8\n        /* \"#utility.yul\":2249:2264   */\n      add\n        /* \"#utility.yul\":2243:2265   */\n      mload\n        /* \"#utility.yul\":2238:2240   */\n      0x60\n        /* \"#utility.yul\":2227:2236   */\n      dup8\n        /* \"#utility.yul\":2223:2241   */\n      add\n        /* \"#utility.yul\":2216:2266   */\n      mstore\n        /* \"#utility.yul\":2322:2324   */\n      0x60\n        /* \"#utility.yul\":2314:2320   */\n      dup8\n        /* \"#utility.yul\":2310:2325   */\n      add\n        /* \"#utility.yul\":2304:2326   */\n      mload\n        /* \"#utility.yul\":2297:2301   */\n      0x80\n        /* \"#utility.yul\":2286:2295   */\n      dup8\n        /* \"#utility.yul\":2282:2302   */\n      add\n        /* \"#utility.yul\":2275:2327   */\n      mstore\n        /* \"#utility.yul\":2344:2347   */\n      dup1\n        /* \"#utility.yul\":2336:2347   */\n      swap5\n      pop\n      pop\n      pop\n      pop\n      pop\n        /* \"#utility.yul\":1443:2353   */\n      swap3\n      swap2\n      pop\n      pop\n      jump\t// out\n        /* \"#utility.yul\":2682:3376   */\n    tag_74:\n        /* \"#utility.yul\":2907:2909   */\n      0x20\n        /* \"#utility.yul\":2959:2980   */\n      dup1\n      dup3\n      mstore\n        /* \"#utility.yul\":3029:3042   */\n      dup3\n      mload\n        /* \"#utility.yul\":2932:2950   */\n      dup3\n      dup3\n      add\n        /* \"#utility.yul\":3051:3073   */\n      dup2\n      swap1\n      mstore\n        /* \"#utility.yul\":2878:2882   */\n      0x00\n      swap2\n        /* \"#utility.yul\":2907:2909   */\n      swap1\n        /* \"#utility.yul\":3130:3145   */\n      dup5\n      dup3\n      add\n      swap1\n        /* \"#utility.yul\":3104:3106   */\n      0x40\n        /* \"#utility.yul\":3089:3107   */\n      dup6\n      add\n      swap1\n        /* \"#utility.yul\":2878:2882   */\n      dup5\n        /* \"#utility.yul\":3173:3350   */\n    tag_277:\n        /* \"#utility.yul\":3187:3193   */\n      dup2\n        /* \"#utility.yul\":3184:3185   */\n      dup2\n        /* \"#utility.yul\":3181:3194   */\n      lt\n        /* \"#utility.yul\":3173:3350   */\n      iszero\n      tag_279\n      jumpi\n        /* \"#utility.yul\":3283:3296   */\n      dup4\n      mload\n        /* \"#utility.yul\":1279:1292   */\n      dup1\n      mload\n      sub(shl(0xa0, 0x01), 0x01)\n        /* \"#utility.yul\":1275:1337   */\n      and\n        /* \"#utility.yul\":1263:1338   */\n      dup5\n      mstore\n        /* \"#utility.yul\":1388:1392   */\n      0x20\n        /* \"#utility.yul\":1376:1393   */\n      swap1\n      dup2\n      add\n        /* \"#utility.yul\":1370:1394   */\n      mload\n        /* \"#utility.yul\":1354:1368   */\n      swap1\n      dup5\n      add\n        /* \"#utility.yul\":1347:1395   */\n      mstore\n        /* \"#utility.yul\":1427:1431   */\n      0x40\n        /* \"#utility.yul\":1418:1432   */\n      dup4\n      add\n        /* \"#utility.yul\":3325:3340   */\n      swap4\n      dup6\n      add\n      swap4\n        /* \"#utility.yul\":3236:3302   */\n      swap3\n      pop\n        /* \"#utility.yul\":3209:3210   */\n      0x01\n        /* \"#utility.yul\":3202:3211   */\n      add\n        /* \"#utility.yul\":3173:3350   */\n      jump(tag_277)\n    tag_279:\n      pop\n        /* \"#utility.yul\":3367:3370   */\n      swap1\n      swap7\n        /* \"#utility.yul\":2682:3376   */\n      swap6\n      pop\n      pop\n      pop\n      pop\n      pop\n      pop\n      jump\t// out\n        /* \"#utility.yul\":4030:4157   */\n    tag_258:\n        /* \"#utility.yul\":4091:4101   */\n      0x4e487b71\n        /* \"#utility.yul\":4086:4089   */\n      0xe0\n        /* \"#utility.yul\":4082:4102   */\n      shl\n        /* \"#utility.yul\":4079:4080   */\n      0x00\n        /* \"#utility.yul\":4072:4103   */\n      mstore\n        /* \"#utility.yul\":4122:4126   */\n      0x11\n        /* \"#utility.yul\":4119:4120   */\n      0x04\n        /* \"#utility.yul\":4112:4127   */\n      mstore\n        /* \"#utility.yul\":4146:4150   */\n      0x24\n        /* \"#utility.yul\":4143:4144   */\n      0x00\n        /* \"#utility.yul\":4136:4151   */\n      revert\n        /* \"#utility.yul\":4162:4287   */\n    tag_103:\n        /* \"#utility.yul\":4227:4236   */\n      dup1\n      dup3\n      add\n        /* \"#utility.yul\":4248:4258   */\n      dup1\n      dup3\n      gt\n        /* \"#utility.yul\":4245:4281   */\n      iszero\n      tag_286\n      jumpi\n        /* \"#utility.yul\":4261:4279   */\n      tag_286\n      tag_258\n      jump\t// in\n    tag_286:\n        /* \"#utility.yul\":4162:4287   */\n      swap3\n      swap2\n      pop\n      pop\n      jump\t// out\n        /* \"#utility.yul\":4292:4420   */\n    tag_105:\n        /* \"#utility.yul\":4359:4368   */\n      dup2\n      dup2\n      sub\n        /* \"#utility.yul\":4380:4391   */\n      dup2\n      dup2\n      gt\n        /* \"#utility.yul\":4377:4414   */\n      iszero\n      tag_286\n      jumpi\n        /* \"#utility.yul\":4394:4412   */\n      tag_286\n      tag_258\n      jump\t// in\n        /* \"#utility.yul\":4425:4552   */\n    tag_111:\n        /* \"#utility.yul\":4486:4496   */\n      0x4e487b71\n        /* \"#utility.yul\":4481:4484   */\n      0xe0\n        /* \"#utility.yul\":4477:4497   */\n      shl\n        /* \"#utility.yul\":4474:4475   */\n      0x00\n        /* \"#utility.yul\":4467:4498   */\n      mstore\n        /* \"#utility.yul\":4517:4521   */\n      0x32\n        /* \"#utility.yul\":4514:4515   */\n      0x04\n        /* \"#utility.yul\":4507:4522   */\n      mstore\n        /* \"#utility.yul\":4541:4545   */\n      0x24\n        /* \"#utility.yul\":4538:4539   */\n      0x00\n        /* \"#utility.yul\":4531:4546   */\n      revert\n        /* \"#utility.yul\":4557:4684   */\n    tag_123:\n        /* \"#utility.yul\":4618:4628   */\n      0x4e487b71\n        /* \"#utility.yul\":4613:4616   */\n      0xe0\n        /* \"#utility.yul\":4609:4629   */\n      shl\n        /* \"#utility.yul\":4606:4607   */\n      0x00\n        /* \"#utility.yul\":4599:4630   */\n      mstore\n        /* \"#utility.yul\":4649:4653   */\n      0x31\n        /* \"#utility.yul\":4646:4647   */\n      0x04\n        /* \"#utility.yul\":4639:4654   */\n      mstore\n        /* \"#utility.yul\":4673:4677   */\n      0x24\n        /* \"#utility.yul\":4670:4671   */\n      0x00\n        /* \"#utility.yul\":4663:4678   */\n      revert\n        /* \"#utility.yul\":4689:4824   */\n    tag_126:\n        /* \"#utility.yul\":4728:4731   */\n      0x00\n        /* \"#utility.yul\":4749:4766   */\n      0x01\n      dup3\n      add\n        /* \"#utility.yul\":4746:4789   */\n      tag_294\n      jumpi\n        /* \"#utility.yul\":4769:4787   */\n      tag_294\n      tag_258\n      jump\t// in\n    tag_294:\n      pop\n        /* \"#utility.yul\":4816:4817   */\n      0x01\n        /* \"#utility.yul\":4805:4818   */\n      add\n      swap1\n        /* \"#utility.yul\":4689:4824   */\n      jump\t// out\n        /* \"#utility.yul\":5897:6065   */\n    tag_149:\n        /* \"#utility.yul\":5970:5979   */\n      dup1\n      dup3\n      mul\n        /* \"#utility.yul\":6001:6010   */\n      dup2\n      iszero\n        /* \"#utility.yul\":6018:6033   */\n      dup3\n      dup3\n      div\n        /* \"#utility.yul\":6012:6034   */\n      dup5\n      eq\n        /* \"#utility.yul\":5998:6035   */\n      or\n        /* \"#utility.yul\":5988:6059   */\n      tag_286\n      jumpi\n        /* \"#utility.yul\":6039:6057   */\n      tag_286\n      tag_258\n      jump\t// in\n        /* \"#utility.yul\":6070:6287   */\n    tag_152:\n        /* \"#utility.yul\":6110:6111   */\n      0x00\n        /* \"#utility.yul\":6136:6137   */\n      dup3\n        /* \"#utility.yul\":6126:6258   */\n      tag_301\n      jumpi\n        /* \"#utility.yul\":6180:6190   */\n      0x4e487b71\n        /* \"#utility.yul\":6175:6178   */\n      0xe0\n        /* \"#utility.yul\":6171:6191   */\n      shl\n        /* \"#utility.yul\":6168:6169   */\n      0x00\n        /* \"#utility.yul\":6161:6192   */\n      mstore\n        /* \"#utility.yul\":6215:6219   */\n      0x12\n        /* \"#utility.yul\":6212:6213   */\n      0x04\n        /* \"#utility.yul\":6205:6220   */\n      mstore\n        /* \"#utility.yul\":6243:6247   */\n      0x24\n        /* \"#utility.yul\":6240:6241   */\n      0x00\n        /* \"#utility.yul\":6233:6248   */\n      revert\n        /* \"#utility.yul\":6126:6258   */\n    tag_301:\n      pop\n        /* \"#utility.yul\":6272:6281   */\n      div\n      swap1\n        /* \"#utility.yul\":6070:6287   */\n      jump\t// out\n        /* \"#utility.yul\":6292:6419   */\n    tag_164:\n        /* \"#utility.yul\":6353:6363   */\n      0x4e487b71\n        /* \"#utility.yul\":6348:6351   */\n      0xe0\n        /* \"#utility.yul\":6344:6364   */\n      shl\n        /* \"#utility.yul\":6341:6342   */\n      0x00\n        /* \"#utility.yul\":6334:6365   */\n      mstore\n        /* \"#utility.yul\":6384:6388   */\n      0x41\n        /* \"#utility.yul\":6381:6382   */\n      0x04\n        /* \"#utility.yul\":6374:6389   */\n      mstore\n        /* \"#utility.yul\":6408:6412   */\n      0x24\n        /* \"#utility.yul\":6405:6406   */\n      0x00\n        /* \"#utility.yul\":6398:6413   */\n      revert\n        /* \"#utility.yul\":7086:7363   */\n    tag_222:\n        /* \"#utility.yul\":7153:7159   */\n      0x00\n        /* \"#utility.yul\":7206:7208   */\n      0x20\n        /* \"#utility.yul\":7194:7203   */\n      dup3\n        /* \"#utility.yul\":7185:7192   */\n      dup5\n        /* \"#utility.yul\":7181:7204   */\n      sub\n        /* \"#utility.yul\":7177:7209   */\n      slt\n        /* \"#utility.yul\":7174:7226   */\n      iszero\n      tag_306\n      jumpi\n        /* \"#utility.yul\":7222:7223   */\n      0x00\n        /* \"#utility.yul\":7219:7220   */\n      dup1\n        /* \"#utility.yul\":7212:7224   */\n      revert\n        /* \"#utility.yul\":7174:7226   */\n    tag_306:\n        /* \"#utility.yul\":7254:7263   */\n      dup2\n        /* \"#utility.yul\":7248:7264   */\n      mload\n        /* \"#utility.yul\":7307:7312   */\n      dup1\n        /* \"#utility.yul\":7300:7313   */\n      iszero\n        /* \"#utility.yul\":7293:7314   */\n      iszero\n        /* \"#utility.yul\":7286:7291   */\n      dup2\n        /* \"#utility.yul\":7283:7315   */\n      eq\n        /* \"#utility.yul\":7273:7333   */\n      tag_206\n      jumpi\n        /* \"#utility.yul\":7329:7330   */\n      0x00\n        /* \"#utility.yul\":7326:7327   */\n      dup1\n        /* \"#utility.yul\":7319:7331   */\n      revert\n        /* \"#utility.yul\":8186:8436   */\n    tag_259:\n        /* \"#utility.yul\":8271:8272   */\n      0x00\n        /* \"#utility.yul\":8281:8394   */\n    tag_311:\n        /* \"#utility.yul\":8295:8301   */\n      dup4\n        /* \"#utility.yul\":8292:8293   */\n      dup2\n        /* \"#utility.yul\":8289:8302   */\n      lt\n        /* \"#utility.yul\":8281:8394   */\n      iszero\n      tag_313\n      jumpi\n        /* \"#utility.yul\":8371:8382   */\n      dup2\n      dup2\n      add\n        /* \"#utility.yul\":8365:8383   */\n      mload\n        /* \"#utility.yul\":8352:8363   */\n      dup4\n      dup3\n      add\n        /* \"#utility.yul\":8345:8384   */\n      mstore\n        /* \"#utility.yul\":8317:8319   */\n      0x20\n        /* \"#utility.yul\":8310:8320   */\n      add\n        /* \"#utility.yul\":8281:8394   */\n      jump(tag_311)\n    tag_313:\n      pop\n      pop\n        /* \"#utility.yul\":8428:8429   */\n      0x00\n        /* \"#utility.yul\":8410:8426   */\n      swap2\n      add\n        /* \"#utility.yul\":8403:8430   */\n      mstore\n        /* \"#utility.yul\":8186:8436   */\n      jump\t// out\n        /* \"#utility.yul\":8441:8728   */\n    tag_234:\n        /* \"#utility.yul\":8570:8573   */\n      0x00\n        /* \"#utility.yul\":8608:8614   */\n      dup3\n        /* \"#utility.yul\":8602:8615   */\n      mload\n        /* \"#utility.yul\":8624:8690   */\n      tag_315\n        /* \"#utility.yul\":8683:8689   */\n      dup2\n        /* \"#utility.yul\":8678:8681   */\n      dup5\n        /* \"#utility.yul\":8671:8675   */\n      0x20\n        /* \"#utility.yul\":8663:8669   */\n      dup8\n        /* \"#utility.yul\":8659:8676   */\n      add\n        /* \"#utility.yul\":8624:8690   */\n      tag_259\n      jump\t// in\n    tag_315:\n        /* \"#utility.yul\":8706:8722   */\n      swap2\n      swap1\n      swap2\n      add\n      swap3\n        /* \"#utility.yul\":8441:8728   */\n      swap2\n      pop\n      pop\n      jump\t// out\n        /* \"#utility.yul\":9091:9487   */\n    tag_256:\n        /* \"#utility.yul\":9240:9242   */\n      0x20\n        /* \"#utility.yul\":9229:9238   */\n      dup2\n        /* \"#utility.yul\":9222:9243   */\n      mstore\n        /* \"#utility.yul\":9203:9207   */\n      0x00\n        /* \"#utility.yul\":9272:9278   */\n      dup3\n        /* \"#utility.yul\":9266:9279   */\n      mload\n        /* \"#utility.yul\":9315:9321   */\n      dup1\n        /* \"#utility.yul\":9310:9312   */\n      0x20\n        /* \"#utility.yul\":9299:9308   */\n      dup5\n        /* \"#utility.yul\":9295:9313   */\n      add\n        /* \"#utility.yul\":9288:9322   */\n      mstore\n        /* \"#utility.yul\":9331:9410   */\n      tag_318\n        /* \"#utility.yul\":9403:9409   */\n      dup2\n        /* \"#utility.yul\":9398:9400   */\n      0x40\n        /* \"#utility.yul\":9387:9396   */\n      dup6\n        /* \"#utility.yul\":9383:9401   */\n      add\n        /* \"#utility.yul\":9378:9380   */\n      0x20\n        /* \"#utility.yul\":9370:9376   */\n      dup8\n        /* \"#utility.yul\":9366:9381   */\n      add\n        /* \"#utility.yul\":9331:9410   */\n      tag_259\n      jump\t// in\n    tag_318:\n        /* \"#utility.yul\":9471:9473   */\n      0x1f\n        /* \"#utility.yul\":9450:9465   */\n      add\n      not(0x1f)\n        /* \"#utility.yul\":9446:9475   */\n      and\n        /* \"#utility.yul\":9431:9476   */\n      swap2\n      swap1\n      swap2\n      add\n        /* \"#utility.yul\":9478:9480   */\n      0x40\n        /* \"#utility.yul\":9427:9481   */\n      add\n      swap3\n        /* \"#utility.yul\":9091:9487   */\n      swap2\n      pop\n      pop\n      jump\t// out\n\n    auxdata: 0xa264697066735822122089ae6c199a9c9a7184fd1244bbe95f7dc67c759af761a86a32347c099d3e22dd64736f6c63430008110033\n}\n",
    "bytecode": {
      "linkReferences": {},
      "object": "60c0604052620186a060015534801561001757600080fd5b506040516112f53803806112f58339810160408190526100369161006a565b60016000556001600160a01b039182166080521660a0526100a4565b6001600160a01b038116811461006757600080fd5b50565b6000806040838503121561007d57600080fd5b825161008881610052565b602084015190925061009981610052565b809150509250929050565b60805160a0516112176100de600039600081816101d2015281816106180152610be7015260008181610333015261073301526112176000f3fe608060405234801561001057600080fd5b506004361061011b5760003560e01c80639168ae72116100b2578063a694fc3a11610081578063ca11a37911610066578063ca11a37914610301578063d1af0c7d1461032e578063f854a27f1461035557600080fd5b8063a694fc3a146102db578063b5a5e509146102ee57600080fd5b80639168ae721461021d5780639262c4d0146102665780639406704514610292578063a466bc03146102bb57600080fd5b806364ab8675116100ee57806364ab8675146101ba5780636588103b146101cd578063733bdef0146101f45780638e7271fa1461021457600080fd5b80632c616319146101205780632e17de781461015c578063372500ab1461017157806362a82d7d14610179575b600080fd5b61014961012e366004610f52565b6001600160a01b031660009081526002602052604090205490565b6040519081526020015b60405180910390f35b61016f61016a366004610f7b565b610368565b005b61016f610682565b6101a2610187366004610f7b565b6000908152600360205260409020546001600160a01b031690565b6040516001600160a01b039091168152602001610153565b6101496101c8366004610f52565b61076f565b6101a27f000000000000000000000000000000000000000000000000000000000000000081565b610207610202366004610f52565b6107e3565b6040516101539190610f94565b61014960015481565b61024b61022b366004610f52565b600260208190526000918252604090912080549181015460039091015483565b60408051938452602084019290925290820152606001610153565b610149610274366004610f52565b6001600160a01b031660009081526002602052604090206003015490565b6101a26102a0366004610f7b565b6003602052600090815260409020546001600160a01b031681565b6102ce6102c9366004610f52565b6108c5565b604051610153919061101b565b61016f6102e9366004610f7b565b610abf565b61016f6102fc366004610f7b565b600155565b61014961030f366004610f52565b6001600160a01b03166000908152600260208190526040909120015490565b6101a27f000000000000000000000000000000000000000000000000000000000000000081565b610149610363366004610f52565b610c4d565b610370610c85565b6000818152600360205260409020546001600160a01b031633146103e75760405162461bcd60e51b815260206004820152602360248201527f596f7520617265206e6f7420746865206f776e6572206f66207468697320746f60448201526235b2b760e91b60648201526084015b60405180910390fd5b60006103f23361076f565b3360009081526002602052604081206003018054929350839290919061041990849061108c565b909155505033600090815260026020526040812080546001929061043e9084906110a5565b90915550503360009081526002602081905260408220429101555b336000908152600260205260409020600101548110156105bc5733600090815260026020526040902060010180548491908390811061049a5761049a6110b8565b906000526020600020906002020160010154036105aa573360009081526002602052604090206001908101805490916104d2916110a5565b815481106104e2576104e26110b8565b906000526020600020906002020160026000336001600160a01b03166001600160a01b031681526020019081526020016000206001018281548110610529576105296110b8565b600091825260208083208454600293840290910180546001600160a01b0319166001600160a01b039092169190911781556001948501549085015533835252604090200180548061057c5761057c6110ce565b60008281526020812060026000199093019283020180546001600160a01b03191681556001015590556105bc565b806105b4816110e4565b915050610459565b5060008281526003602052604080822080546001600160a01b031916905551637921219560e11b8152306004820152336024820152604481018490526001606482015260a0608482015260a48101919091526001600160a01b037f0000000000000000000000000000000000000000000000000000000000000000169063f242432a9060c401600060405180830381600087803b15801561065c57600080fd5b505af1158015610670573d6000803e3d6000fd5b505050505061067f6001600055565b50565b61068a610c85565b3360008181526002602052604081206003015490916106a89061076f565b6106b2919061108c565b9050600081116107105760405162461bcd60e51b8152602060048201526024808201527f596f7520646f206e6f74206861766520616e79207265776172647320746f20636044820152636c61696d60e01b60648201526084016103de565b3360008181526002602081905260408220429181019190915560030155610762907f00000000000000000000000000000000000000000000000000000000000000006001600160a01b03169083610cde565b5061076d6001600055565b565b6001600160a01b038116600090815260026020819052604082200154819061079790426110a5565b6001600160a01b0384166000908152600260205260408120546001549293509091610e1091906107c790856110fd565b6107d191906110fd565b6107db9190611114565b949350505050565b61080e6040518060800160405280600081526020016060815260200160008152602001600081525090565b6001600160a01b03821660009081526002602090815260408083208151608081018352815481526001820180548451818702810187019095528085529195929486810194939192919084015b828210156108a2576000848152602090819020604080518082019091526002850290910180546001600160a01b0316825260019081015482840152908352909201910161085a565b505050508152602001600282015481526020016003820154815250509050919050565b6001600160a01b03811660009081526002602052604090205460609015610a7b576001600160a01b03821660009081526002602052604081205467ffffffffffffffff81111561091757610917611136565b60405190808252806020026020018201604052801561095c57816020015b60408051808201909152600080825260208201528152602001906001900390816109355790505b5090506000805b6001600160a01b038516600090815260026020526040902060010154811015610a72576001600160a01b03851660009081526002602052604081206001018054839081106109b3576109b36110b8565b60009182526020909120600290910201546001600160a01b031614610a60576001600160a01b03851660009081526002602052604090206001018054829081106109ff576109ff6110b8565b60009182526020918290206040805180820190915260029092020180546001600160a01b0316825260010154918101919091528351849084908110610a4657610a466110b8565b60200260200101819052508180610a5c906110e4565b9250505b80610a6a816110e4565b915050610963565b50909392505050565b6040805160008082526020820190925290610ab8565b6040805180820190915260008082526020820152815260200190600190039081610a915790505b5092915050565b610ac7610c85565b3360009081526002602052604090205415610b15576000610ae73361076f565b33600090815260026020526040812060030180549293508392909190610b0e90849061108c565b9091555050505b336000908152600260205260408120805460019290610b3590849061108c565b90915550503360008181526002602081815260408084204281850155815180830183528681528084018881526001928301805480850182559088528588209251960290910180546001600160a01b03199081166001600160a01b0397881617825591519083015587865260039093528185208054909316861790925551637921219560e11b8152600481019490945230602485015260448401859052606484015260a0608484015260a48301919091527f0000000000000000000000000000000000000000000000000000000000000000169063f242432a9060c401600060405180830381600087803b158015610c2b57600080fd5b505af1158015610c3f573d6000803e3d6000fd5b5050505061067f6001600055565b6001600160a01b0381166000908152600260205260408120600301548190610c748461076f565b610c7e919061108c565b9392505050565b600260005403610cd75760405162461bcd60e51b815260206004820152601f60248201527f5265656e7472616e637947756172643a207265656e7472616e742063616c6c0060448201526064016103de565b6002600055565b604080516001600160a01b038416602482015260448082018490528251808303909101815260649091019091526020810180517bffffffffffffffffffffffffffffffffffffffffffffffffffffffff1663a9059cbb60e01b179052610d45908490610d4a565b505050565b6000610d9f826040518060400160405280602081526020017f5361666545524332303a206c6f772d6c6576656c2063616c6c206661696c6564815250856001600160a01b0316610e2f9092919063ffffffff16565b805190915015610d455780806020019051810190610dbd919061114c565b610d455760405162461bcd60e51b815260206004820152602a60248201527f5361666545524332303a204552433230206f7065726174696f6e20646964206e60448201527f6f7420737563636565640000000000000000000000000000000000000000000060648201526084016103de565b60606107db848460008585600080866001600160a01b03168587604051610e569190611192565b60006040518083038185875af1925050503d8060008114610e93576040519150601f19603f3d011682016040523d82523d6000602084013e610e98565b606091505b5091509150610ea987838387610eb4565b979650505050505050565b60608315610f23578251600003610f1c576001600160a01b0385163b610f1c5760405162461bcd60e51b815260206004820152601d60248201527f416464726573733a2063616c6c20746f206e6f6e2d636f6e747261637400000060448201526064016103de565b50816107db565b6107db8383815115610f385781518083602001fd5b8060405162461bcd60e51b81526004016103de91906111ae565b600060208284031215610f6457600080fd5b81356001600160a01b0381168114610c7e57600080fd5b600060208284031215610f8d57600080fd5b5035919050565b60208082528251828201528281015160806040840152805160a0840181905260009291820190839060c08601905b80831015610ff957835180516001600160a01b03168352602090810151908301526040820191508484019350600183019250610fc2565b5060408701516060870152606087015160808701528094505050505092915050565b6020808252825182820181905260009190848201906040850190845b8181101561106a57835180516001600160a01b031684526020908101519084015260408301938501939250600101611037565b50909695505050505050565b634e487b7160e01b600052601160045260246000fd5b8082018082111561109f5761109f611076565b92915050565b8181038181111561109f5761109f611076565b634e487b7160e01b600052603260045260246000fd5b634e487b7160e01b600052603160045260246000fd5b6000600182016110f6576110f6611076565b5060010190565b808202811582820484141761109f5761109f611076565b60008261113157634e487b7160e01b600052601260045260246000fd5b500490565b634e487b7160e01b600052604160045260246000fd5b60006020828403121561115e57600080fd5b81518015158114610c7e57600080fd5b60005b83811015611189578181015183820152602001611171565b50506000910152565b600082516111a481846020870161116e565b9190910192915050565b60208152600082518060208401526111cd81604085016020870161116e565b601f01601f1916919091016040019291505056fea264697066735822122089ae6c199a9c9a7184fd1244bbe95f7dc67c759af761a86a32347c099d3e22dd64736f6c63430008110033",
      "opcodes": "PUSH1 0xC0 PUSH1 0x40 MSTORE PUSH3 0x186A0 PUSH1 0x1 SSTORE CALLVALUE DUP1 ISZERO PUSH2 0x17 JUMPI PUSH1 0x0 DUP1 REVERT JUMPDEST POP PUSH1 0x40 MLOAD PUSH2 0x12F5 CODESIZE SUB DUP1 PUSH2 0x12F5 DUP4 CODECOPY DUP2 ADD PUSH1 0x40 DUP2 SWAP1 MSTORE PUSH2 0x36 SWAP2 PUSH2 0x6A JUMP JUMPDEST PUSH1 0x1 PUSH1 0x0 SSTORE PUSH1 0x1 PUSH1 0x1 PUSH1 0xA0 SHL SUB SWAP2 DUP3 AND PUSH1 0x80 MSTORE AND PUSH1 0xA0 MSTORE PUSH2 0xA4 JUMP JUMPDEST PUSH1 0x1 PUSH1 0x1 PUSH1 0xA0 SHL SUB DUP2 AND DUP2 EQ PUSH2 0x67 JUMPI PUSH1 0x0 DUP1 REVERT JUMPDEST POP JUMP JUMPDEST PUSH1 0x0 DUP1 PUSH1 0x40 DUP4 DUP6 SUB SLT ISZERO PUSH2 0x7D JUMPI PUSH1 0x0 DUP1 REVERT JUMPDEST DUP3 MLOAD PUSH2 0x88 DUP2 PUSH2 0x52 JUMP JUMPDEST PUSH1 0x20 DUP5 ADD MLOAD SWAP1 SWAP3 POP PUSH2 0x99 DUP2 PUSH2 0x52 JUMP JUMPDEST DUP1 SWAP2 POP POP SWAP3 POP SWAP3 SWAP1 POP JUMP JUMPDEST PUSH1 0x80 MLOAD PUSH1 0xA0 MLOAD PUSH2 0x1217 PUSH2 0xDE PUSH1 0x0 CODECOPY PUSH1 0x0 DUP2 DUP2 PUSH2 0x1D2 ADD MSTORE DUP2 DUP2 PUSH2 0x618 ADD MSTORE PUSH2 0xBE7 ADD MSTORE PUSH1 0x0 DUP2 DUP2 PUSH2 0x333 ADD MSTORE PUSH2 0x733 ADD MSTORE PUSH2 0x1217 PUSH1 0x0 RETURN INVALID PUSH1 0x80 PUSH1 0x40 MSTORE CALLVALUE DUP1 ISZERO PUSH2 0x10 JUMPI PUSH1 0x0 DUP1 REVERT JUMPDEST POP PUSH1 0x4 CALLDATASIZE LT PUSH2 0x11B JUMPI PUSH1 0x0 CALLDATALOAD PUSH1 0xE0 SHR DUP1 PUSH4 0x9168AE72 GT PUSH2 0xB2 JUMPI DUP1 PUSH4 0xA694FC3A GT PUSH2 0x81 JUMPI DUP1 PUSH4 0xCA11A379 GT PUSH2 0x66 JUMPI DUP1 PUSH4 0xCA11A379 EQ PUSH2 0x301 JUMPI DUP1 PUSH4 0xD1AF0C7D EQ PUSH2 0x32E JUMPI DUP1 PUSH4 0xF854A27F EQ PUSH2 0x355 JUMPI PUSH1 0x0 DUP1 REVERT JUMPDEST DUP1 PUSH4 0xA694FC3A EQ PUSH2 0x2DB JUMPI DUP1 PUSH4 0xB5A5E509 EQ PUSH2 0x2EE JUMPI PUSH1 0x0 DUP1 REVERT JUMPDEST DUP1 PUSH4 0x9168AE72 EQ PUSH2 0x21D JUMPI DUP1 PUSH4 0x9262C4D0 EQ PUSH2 0x266 JUMPI DUP1 PUSH4 0x94067045 EQ PUSH2 0x292 JUMPI DUP1 PUSH4 0xA466BC03 EQ PUSH2 0x2BB JUMPI PUSH1 0x0 DUP1 REVERT JUMPDEST DUP1 PUSH4 0x64AB8675 GT PUSH2 0xEE JUMPI DUP1 PUSH4 0x64AB8675 EQ PUSH2 0x1BA JUMPI DUP1 PUSH4 0x6588103B EQ PUSH2 0x1CD JUMPI DUP1 PUSH4 0x733BDEF0 EQ PUSH2 0x1F4 JUMPI DUP1 PUSH4 0x8E7271FA EQ PUSH2 0x214 JUMPI PUSH1 0x0 DUP1 REVERT JUMPDEST DUP1 PUSH4 0x2C616319 EQ PUSH2 0x120 JUMPI DUP1 PUSH4 0x2E17DE78 EQ PUSH2 0x15C JUMPI DUP1 PUSH4 0x372500AB EQ PUSH2 0x171 JUMPI DUP1 PUSH4 0x62A82D7D EQ PUSH2 0x179 JUMPI JUMPDEST PUSH1 0x0 DUP1 REVERT JUMPDEST PUSH2 0x149 PUSH2 0x12E CALLDATASIZE PUSH1 0x4 PUSH2 0xF52 JUMP JUMPDEST PUSH1 0x1 PUSH1 0x1 PUSH1 0xA0 SHL SUB AND PUSH1 0x0 SWAP1 DUP2 MSTORE PUSH1 0x2 PUSH1 0x20 MSTORE PUSH1 0x40 SWAP1 KECCAK256 SLOAD SWAP1 JUMP JUMPDEST PUSH1 0x40 MLOAD SWAP1 DUP2 MSTORE PUSH1 0x20 ADD JUMPDEST PUSH1 0x40 MLOAD DUP1 SWAP2 SUB SWAP1 RETURN JUMPDEST PUSH2 0x16F PUSH2 0x16A CALLDATASIZE PUSH1 0x4 PUSH2 0xF7B JUMP JUMPDEST PUSH2 0x368 JUMP JUMPDEST STOP JUMPDEST PUSH2 0x16F PUSH2 0x682 JUMP JUMPDEST PUSH2 0x1A2 PUSH2 0x187 CALLDATASIZE PUSH1 0x4 PUSH2 0xF7B JUMP JUMPDEST PUSH1 0x0 SWAP1 DUP2 MSTORE PUSH1 0x3 PUSH1 0x20 MSTORE PUSH1 0x40 SWAP1 KECCAK256 SLOAD PUSH1 0x1 PUSH1 0x1 PUSH1 0xA0 SHL SUB AND SWAP1 JUMP JUMPDEST PUSH1 0x40 MLOAD PUSH1 0x1 PUSH1 0x1 PUSH1 0xA0 SHL SUB SWAP1 SWAP2 AND DUP2 MSTORE PUSH1 0x20 ADD PUSH2 0x153 JUMP JUMPDEST PUSH2 0x149 PUSH2 0x1C8 CALLDATASIZE PUSH1 0x4 PUSH2 0xF52 JUMP JUMPDEST PUSH2 0x76F JUMP JUMPDEST PUSH2 0x1A2 PUSH32 0x0 DUP2 JUMP JUMPDEST PUSH2 0x207 PUSH2 0x202 CALLDATASIZE PUSH1 0x4 PUSH2 0xF52 JUMP JUMPDEST PUSH2 0x7E3 JUMP JUMPDEST PUSH1 0x40 MLOAD PUSH2 0x153 SWAP2 SWAP1 PUSH2 0xF94 JUMP JUMPDEST PUSH2 0x149 PUSH1 0x1 SLOAD DUP2 JUMP JUMPDEST PUSH2 0x24B PUSH2 0x22B CALLDATASIZE PUSH1 0x4 PUSH2 0xF52 JUMP JUMPDEST PUSH1 0x2 PUSH1 0x20 DUP2 SWAP1 MSTORE PUSH1 0x0 SWAP2 DUP3 MSTORE PUSH1 0x40 SWAP1 SWAP2 KECCAK256 DUP1 SLOAD SWAP2 DUP2 ADD SLOAD PUSH1 0x3 SWAP1 SWAP2 ADD SLOAD DUP4 JUMP JUMPDEST PUSH1 0x40 DUP1 MLOAD SWAP4 DUP5 MSTORE PUSH1 0x20 DUP5 ADD SWAP3 SWAP1 SWAP3 MSTORE SWAP1 DUP3 ADD MSTORE PUSH1 0x60 ADD PUSH2 0x153 JUMP JUMPDEST PUSH2 0x149 PUSH2 0x274 CALLDATASIZE PUSH1 0x4 PUSH2 0xF52 JUMP JUMPDEST PUSH1 0x1 PUSH1 0x1 PUSH1 0xA0 SHL SUB AND PUSH1 0x0 SWAP1 DUP2 MSTORE PUSH1 0x2 PUSH1 0x20 MSTORE PUSH1 0x40 SWAP1 KECCAK256 PUSH1 0x3 ADD SLOAD SWAP1 JUMP JUMPDEST PUSH2 0x1A2 PUSH2 0x2A0 CALLDATASIZE PUSH1 0x4 PUSH2 0xF7B JUMP JUMPDEST PUSH1 0x3 PUSH1 0x20 MSTORE PUSH1 0x0 SWAP1 DUP2 MSTORE PUSH1 0x40 SWAP1 KECCAK256 SLOAD PUSH1 0x1 PUSH1 0x1 PUSH1 0xA0 SHL SUB AND DUP2 JUMP JUMPDEST PUSH2 0x2CE PUSH2 0x2C9 CALLDATASIZE PUSH1 0x4 PUSH2 0xF52 JUMP JUMPDEST PUSH2 0x8C5 JUMP JUMPDEST PUSH1 0x40 MLOAD PUSH2 0x153 SWAP2 SWAP1 PUSH2 0x101B JUMP JUMPDEST PUSH2 0x16F PUSH2 0x2E9 CALLDATASIZE PUSH1 0x4 PUSH2 0xF7B JUMP JUMPDEST PUSH2 0xABF JUMP JUMPDEST PUSH2 0x16F PUSH2 0x2FC CALLDATASIZE PUSH1 0x4 PUSH2 0xF7B JUMP JUMPDEST PUSH1 0x1 SSTORE JUMP JUMPDEST PUSH2 0x149 PUSH2 0x30F CALLDATASIZE PUSH1 0x4 PUSH2 0xF52 JUMP JUMPDEST PUSH1 0x1 PUSH1 0x1 PUSH1 0xA0 SHL SUB AND PUSH1 0x0 SWAP1 DUP2 MSTORE PUSH1 0x2 PUSH1 0x20 DUP2 SWAP1 MSTORE PUSH1 0x40 SWAP1 SWAP2 KECCAK256 ADD SLOAD SWAP1 JUMP JUMPDEST PUSH2 0x1A2 PUSH32 0x0 DUP2 JUMP JUMPDEST PUSH2 0x149 PUSH2 0x363 CALLDATASIZE PUSH1 0x4 PUSH2 0xF52 JUMP JUMPDEST PUSH2 0xC4D JUMP JUMPDEST PUSH2 0x370 PUSH2 0xC85 JUMP JUMPDEST PUSH1 0x0 DUP2 DUP2 MSTORE PUSH1 0x3 PUSH1 0x20 MSTORE PUSH1 0x40 SWAP1 KECCAK256 SLOAD PUSH1 0x1 PUSH1 0x1 PUSH1 0xA0 SHL SUB AND CALLER EQ PUSH2 0x3E7 JUMPI PUSH1 0x40 MLOAD PUSH3 0x461BCD PUSH1 0xE5 SHL DUP2 MSTORE PUSH1 0x20 PUSH1 0x4 DUP3 ADD MSTORE PUSH1 0x23 PUSH1 0x24 DUP3 ADD MSTORE PUSH32 0x596F7520617265206E6F7420746865206F776E6572206F66207468697320746F PUSH1 0x44 DUP3 ADD MSTORE PUSH3 0x35B2B7 PUSH1 0xE9 SHL PUSH1 0x64 DUP3 ADD MSTORE PUSH1 0x84 ADD JUMPDEST PUSH1 0x40 MLOAD DUP1 SWAP2 SUB SWAP1 REVERT JUMPDEST PUSH1 0x0 PUSH2 0x3F2 CALLER PUSH2 0x76F JUMP JUMPDEST CALLER PUSH1 0x0 SWAP1 DUP2 MSTORE PUSH1 0x2 PUSH1 0x20 MSTORE PUSH1 0x40 DUP2 KECCAK256 PUSH1 0x3 ADD DUP1 SLOAD SWAP3 SWAP4 POP DUP4 SWAP3 SWAP1 SWAP2 SWAP1 PUSH2 0x419 SWAP1 DUP5 SWAP1 PUSH2 0x108C JUMP JUMPDEST SWAP1 SWAP2 SSTORE POP POP CALLER PUSH1 0x0 SWAP1 DUP2 MSTORE PUSH1 0x2 PUSH1 0x20 MSTORE PUSH1 0x40 DUP2 KECCAK256 DUP1 SLOAD PUSH1 0x1 SWAP3 SWAP1 PUSH2 0x43E SWAP1 DUP5 SWAP1 PUSH2 0x10A5 JUMP JUMPDEST SWAP1 SWAP2 SSTORE POP POP CALLER PUSH1 0x0 SWAP1 DUP2 MSTORE PUSH1 0x2 PUSH1 0x20 DUP2 SWAP1 MSTORE PUSH1 0x40 DUP3 KECCAK256 TIMESTAMP SWAP2 ADD SSTORE JUMPDEST CALLER PUSH1 0x0 SWAP1 DUP2 MSTORE PUSH1 0x2 PUSH1 0x20 MSTORE PUSH1 0x40 SWAP1 KECCAK256 PUSH1 0x1 ADD SLOAD DUP2 LT ISZERO PUSH2 0x5BC JUMPI CALLER PUSH1 0x0 SWAP1 DUP2 MSTORE PUSH1 0x2 PUSH1 0x20 MSTORE PUSH1 0x40 SWAP1 KECCAK256 PUSH1 0x1 ADD DUP1 SLOAD DUP5 SWAP2 SWAP1 DUP4 SWAP1 DUP2 LT PUSH2 0x49A JUMPI PUSH2 0x49A PUSH2 0x10B8 JUMP JUMPDEST SWAP1 PUSH1 0x0 MSTORE PUSH1 0x20 PUSH1 0x0 KECCAK256 SWAP1 PUSH1 0x2 MUL ADD PUSH1 0x1 ADD SLOAD SUB PUSH2 0x5AA JUMPI CALLER PUSH1 0x0 SWAP1 DUP2 MSTORE PUSH1 0x2 PUSH1 0x20 MSTORE PUSH1 0x40 SWAP1 KECCAK256 PUSH1 0x1 SWAP1 DUP2 ADD DUP1 SLOAD SWAP1 SWAP2 PUSH2 0x4D2 SWAP2 PUSH2 0x10A5 JUMP JUMPDEST DUP2 SLOAD DUP2 LT PUSH2 0x4E2 JUMPI PUSH2 0x4E2 PUSH2 0x10B8 JUMP JUMPDEST SWAP1 PUSH1 0x0 MSTORE PUSH1 0x20 PUSH1 0x0 KECCAK256 SWAP1 PUSH1 0x2 MUL ADD PUSH1 0x2 PUSH1 0x0 CALLER PUSH1 0x1 PUSH1 0x1 PUSH1 0xA0 SHL SUB AND PUSH1 0x1 PUSH1 0x1 PUSH1 0xA0 SHL SUB AND DUP2 MSTORE PUSH1 0x20 ADD SWAP1 DUP2 MSTORE PUSH1 0x20 ADD PUSH1 0x0 KECCAK256 PUSH1 0x1 ADD DUP3 DUP2 SLOAD DUP2 LT PUSH2 0x529 JUMPI PUSH2 0x529 PUSH2 0x10B8 JUMP JUMPDEST PUSH1 0x0 SWAP2 DUP3 MSTORE PUSH1 0x20 DUP1 DUP4 KECCAK256 DUP5 SLOAD PUSH1 0x2 SWAP4 DUP5 MUL SWAP1 SWAP2 ADD DUP1 SLOAD PUSH1 0x1 PUSH1 0x1 PUSH1 0xA0 SHL SUB NOT AND PUSH1 0x1 PUSH1 0x1 PUSH1 0xA0 SHL SUB SWAP1 SWAP3 AND SWAP2 SWAP1 SWAP2 OR DUP2 SSTORE PUSH1 0x1 SWAP5 DUP6 ADD SLOAD SWAP1 DUP6 ADD SSTORE CALLER DUP4 MSTORE MSTORE PUSH1 0x40 SWAP1 KECCAK256 ADD DUP1 SLOAD DUP1 PUSH2 0x57C JUMPI PUSH2 0x57C PUSH2 0x10CE JUMP JUMPDEST PUSH1 0x0 DUP3 DUP2 MSTORE PUSH1 0x20 DUP2 KECCAK256 PUSH1 0x2 PUSH1 0x0 NOT SWAP1 SWAP4 ADD SWAP3 DUP4 MUL ADD DUP1 SLOAD PUSH1 0x1 PUSH1 0x1 PUSH1 0xA0 SHL SUB NOT AND DUP2 SSTORE PUSH1 0x1 ADD SSTORE SWAP1 SSTORE PUSH2 0x5BC JUMP JUMPDEST DUP1 PUSH2 0x5B4 DUP2 PUSH2 0x10E4 JUMP JUMPDEST SWAP2 POP POP PUSH2 0x459 JUMP JUMPDEST POP PUSH1 0x0 DUP3 DUP2 MSTORE PUSH1 0x3 PUSH1 0x20 MSTORE PUSH1 0x40 DUP1 DUP3 KECCAK256 DUP1 SLOAD PUSH1 0x1 PUSH1 0x1 PUSH1 0xA0 SHL SUB NOT AND SWAP1 SSTORE MLOAD PUSH4 0x79212195 PUSH1 0xE1 SHL DUP2 MSTORE ADDRESS PUSH1 0x4 DUP3 ADD MSTORE CALLER PUSH1 0x24 DUP3 ADD MSTORE PUSH1 0x44 DUP2 ADD DUP5 SWAP1 MSTORE PUSH1 0x1 PUSH1 0x64 DUP3 ADD MSTORE PUSH1 0xA0 PUSH1 0x84 DUP3 ADD MSTORE PUSH1 0xA4 DUP2 ADD SWAP2 SWAP1 SWAP2 MSTORE PUSH1 0x1 PUSH1 0x1 PUSH1 0xA0 SHL SUB PUSH32 0x0 AND SWAP1 PUSH4 0xF242432A SWAP1 PUSH1 0xC4 ADD PUSH1 0x0 PUSH1 0x40 MLOAD DUP1 DUP4 SUB DUP2 PUSH1 0x0 DUP8 DUP1 EXTCODESIZE ISZERO DUP1 ISZERO PUSH2 0x65C JUMPI PUSH1 0x0 DUP1 REVERT JUMPDEST POP GAS CALL ISZERO DUP1 ISZERO PUSH2 0x670 JUMPI RETURNDATASIZE PUSH1 0x0 DUP1 RETURNDATACOPY RETURNDATASIZE PUSH1 0x0 REVERT JUMPDEST POP POP POP POP POP PUSH2 0x67F PUSH1 0x1 PUSH1 0x0 SSTORE JUMP JUMPDEST POP JUMP JUMPDEST PUSH2 0x68A PUSH2 0xC85 JUMP JUMPDEST CALLER PUSH1 0x0 DUP2 DUP2 MSTORE PUSH1 0x2 PUSH1 0x20 MSTORE PUSH1 0x40 DUP2 KECCAK256 PUSH1 0x3 ADD SLOAD SWAP1 SWAP2 PUSH2 0x6A8 SWAP1 PUSH2 0x76F JUMP JUMPDEST PUSH2 0x6B2 SWAP2 SWAP1 PUSH2 0x108C JUMP JUMPDEST SWAP1 POP PUSH1 0x0 DUP2 GT PUSH2 0x710 JUMPI PUSH1 0x40 MLOAD PUSH3 0x461BCD PUSH1 0xE5 SHL DUP2 MSTORE PUSH1 0x20 PUSH1 0x4 DUP3 ADD MSTORE PUSH1 0x24 DUP1 DUP3 ADD MSTORE PUSH32 0x596F7520646F206E6F74206861766520616E79207265776172647320746F2063 PUSH1 0x44 DUP3 ADD MSTORE PUSH4 0x6C61696D PUSH1 0xE0 SHL PUSH1 0x64 DUP3 ADD MSTORE PUSH1 0x84 ADD PUSH2 0x3DE JUMP JUMPDEST CALLER PUSH1 0x0 DUP2 DUP2 MSTORE PUSH1 0x2 PUSH1 0x20 DUP2 SWAP1 MSTORE PUSH1 0x40 DUP3 KECCAK256 TIMESTAMP SWAP2 DUP2 ADD SWAP2 SWAP1 SWAP2 SSTORE PUSH1 0x3 ADD SSTORE PUSH2 0x762 SWAP1 PUSH32 0x0 PUSH1 0x1 PUSH1 0x1 PUSH1 0xA0 SHL SUB AND SWAP1 DUP4 PUSH2 0xCDE JUMP JUMPDEST POP PUSH2 0x76D PUSH1 0x1 PUSH1 0x0 SSTORE JUMP JUMPDEST JUMP JUMPDEST PUSH1 0x1 PUSH1 0x1 PUSH1 0xA0 SHL SUB DUP2 AND PUSH1 0x0 SWAP1 DUP2 MSTORE PUSH1 0x2 PUSH1 0x20 DUP2 SWAP1 MSTORE PUSH1 0x40 DUP3 KECCAK256 ADD SLOAD DUP2 SWAP1 PUSH2 0x797 SWAP1 TIMESTAMP PUSH2 0x10A5 JUMP JUMPDEST PUSH1 0x1 PUSH1 0x1 PUSH1 0xA0 SHL SUB DUP5 AND PUSH1 0x0 SWAP1 DUP2 MSTORE PUSH1 0x2 PUSH1 0x20 MSTORE PUSH1 0x40 DUP2 KECCAK256 SLOAD PUSH1 0x1 SLOAD SWAP3 SWAP4 POP SWAP1 SWAP2 PUSH2 0xE10 SWAP2 SWAP1 PUSH2 0x7C7 SWAP1 DUP6 PUSH2 0x10FD JUMP JUMPDEST PUSH2 0x7D1 SWAP2 SWAP1 PUSH2 0x10FD JUMP JUMPDEST PUSH2 0x7DB SWAP2 SWAP1 PUSH2 0x1114 JUMP JUMPDEST SWAP5 SWAP4 POP POP POP POP JUMP JUMPDEST PUSH2 0x80E PUSH1 0x40 MLOAD DUP1 PUSH1 0x80 ADD PUSH1 0x40 MSTORE DUP1 PUSH1 0x0 DUP2 MSTORE PUSH1 0x20 ADD PUSH1 0x60 DUP2 MSTORE PUSH1 0x20 ADD PUSH1 0x0 DUP2 MSTORE PUSH1 0x20 ADD PUSH1 0x0 DUP2 MSTORE POP SWAP1 JUMP JUMPDEST PUSH1 0x1 PUSH1 0x1 PUSH1 0xA0 SHL SUB DUP3 AND PUSH1 0x0 SWAP1 DUP2 MSTORE PUSH1 0x2 PUSH1 0x20 SWAP1 DUP2 MSTORE PUSH1 0x40 DUP1 DUP4 KECCAK256 DUP2 MLOAD PUSH1 0x80 DUP2 ADD DUP4 MSTORE DUP2 SLOAD DUP2 MSTORE PUSH1 0x1 DUP3 ADD DUP1 SLOAD DUP5 MLOAD DUP2 DUP8 MUL DUP2 ADD DUP8 ADD SWAP1 SWAP6 MSTORE DUP1 DUP6 MSTORE SWAP2 SWAP6 SWAP3 SWAP5 DUP7 DUP2 ADD SWAP5 SWAP4 SWAP2 SWAP3 SWAP2 SWAP1 DUP5 ADD JUMPDEST DUP3 DUP3 LT ISZERO PUSH2 0x8A2 JUMPI PUSH1 0x0 DUP5 DUP2 MSTORE PUSH1 0x20 SWAP1 DUP2 SWAP1 KECCAK256 PUSH1 0x40 DUP1 MLOAD DUP1 DUP3 ADD SWAP1 SWAP2 MSTORE PUSH1 0x2 DUP6 MUL SWAP1 SWAP2 ADD DUP1 SLOAD PUSH1 0x1 PUSH1 0x1 PUSH1 0xA0 SHL SUB AND DUP3 MSTORE PUSH1 0x1 SWAP1 DUP2 ADD SLOAD DUP3 DUP5 ADD MSTORE SWAP1 DUP4 MSTORE SWAP1 SWAP3 ADD SWAP2 ADD PUSH2 0x85A JUMP JUMPDEST POP POP POP POP DUP2 MSTORE PUSH1 0x20 ADD PUSH1 0x2 DUP3 ADD SLOAD DUP2 MSTORE PUSH1 0x20 ADD PUSH1 0x3 DUP3 ADD SLOAD DUP2 MSTORE POP POP SWAP1 POP SWAP2 SWAP1 POP JUMP JUMPDEST PUSH1 0x1 PUSH1 0x1 PUSH1 0xA0 SHL SUB DUP2 AND PUSH1 0x0 SWAP1 DUP2 MSTORE PUSH1 0x2 PUSH1 0x20 MSTORE PUSH1 0x40 SWAP1 KECCAK256 SLOAD PUSH1 0x60 SWAP1 ISZERO PUSH2 0xA7B JUMPI PUSH1 0x1 PUSH1 0x1 PUSH1 0xA0 SHL SUB DUP3 AND PUSH1 0x0 SWAP1 DUP2 MSTORE PUSH1 0x2 PUSH1 0x20 MSTORE PUSH1 0x40 DUP2 KECCAK256 SLOAD PUSH8 0xFFFFFFFFFFFFFFFF DUP2 GT ISZERO PUSH2 0x917 JUMPI PUSH2 0x917 PUSH2 0x1136 JUMP JUMPDEST PUSH1 0x40 MLOAD SWAP1 DUP1 DUP3 MSTORE DUP1 PUSH1 0x20 MUL PUSH1 0x20 ADD DUP3 ADD PUSH1 0x40 MSTORE DUP1 ISZERO PUSH2 0x95C JUMPI DUP2 PUSH1 0x20 ADD JUMPDEST PUSH1 0x40 DUP1 MLOAD DUP1 DUP3 ADD SWAP1 SWAP2 MSTORE PUSH1 0x0 DUP1 DUP3 MSTORE PUSH1 0x20 DUP3 ADD MSTORE DUP2 MSTORE PUSH1 0x20 ADD SWAP1 PUSH1 0x1 SWAP1 SUB SWAP1 DUP2 PUSH2 0x935 JUMPI SWAP1 POP JUMPDEST POP SWAP1 POP PUSH1 0x0 DUP1 JUMPDEST PUSH1 0x1 PUSH1 0x1 PUSH1 0xA0 SHL SUB DUP6 AND PUSH1 0x0 SWAP1 DUP2 MSTORE PUSH1 0x2 PUSH1 0x20 MSTORE PUSH1 0x40 SWAP1 KECCAK256 PUSH1 0x1 ADD SLOAD DUP2 LT ISZERO PUSH2 0xA72 JUMPI PUSH1 0x1 PUSH1 0x1 PUSH1 0xA0 SHL SUB DUP6 AND PUSH1 0x0 SWAP1 DUP2 MSTORE PUSH1 0x2 PUSH1 0x20 MSTORE PUSH1 0x40 DUP2 KECCAK256 PUSH1 0x1 ADD DUP1 SLOAD DUP4 SWAP1 DUP2 LT PUSH2 0x9B3 JUMPI PUSH2 0x9B3 PUSH2 0x10B8 JUMP JUMPDEST PUSH1 0x0 SWAP2 DUP3 MSTORE PUSH1 0x20 SWAP1 SWAP2 KECCAK256 PUSH1 0x2 SWAP1 SWAP2 MUL ADD SLOAD PUSH1 0x1 PUSH1 0x1 PUSH1 0xA0 SHL SUB AND EQ PUSH2 0xA60 JUMPI PUSH1 0x1 PUSH1 0x1 PUSH1 0xA0 SHL SUB DUP6 AND PUSH1 0x0 SWAP1 DUP2 MSTORE PUSH1 0x2 PUSH1 0x20 MSTORE PUSH1 0x40 SWAP1 KECCAK256 PUSH1 0x1 ADD DUP1 SLOAD DUP3 SWAP1 DUP2 LT PUSH2 0x9FF JUMPI PUSH2 0x9FF PUSH2 0x10B8 JUMP JUMPDEST PUSH1 0x0 SWAP2 DUP3 MSTORE PUSH1 0x20 SWAP2 DUP3 SWAP1 KECCAK256 PUSH1 0x40 DUP1 MLOAD DUP1 DUP3 ADD SWAP1 SWAP2 MSTORE PUSH1 0x2 SWAP1 SWAP3 MUL ADD DUP1 SLOAD PUSH1 0x1 PUSH1 0x1 PUSH1 0xA0 SHL SUB AND DUP3 MSTORE PUSH1 0x1 ADD SLOAD SWAP2 DUP2 ADD SWAP2 SWAP1 SWAP2 MSTORE DUP4 MLOAD DUP5 SWAP1 DUP5 SWAP1 DUP2 LT PUSH2 0xA46 JUMPI PUSH2 0xA46 PUSH2 0x10B8 JUMP JUMPDEST PUSH1 0x20 MUL PUSH1 0x20 ADD ADD DUP2 SWAP1 MSTORE POP DUP2 DUP1 PUSH2 0xA5C SWAP1 PUSH2 0x10E4 JUMP JUMPDEST SWAP3 POP POP JUMPDEST DUP1 PUSH2 0xA6A DUP2 PUSH2 0x10E4 JUMP JUMPDEST SWAP2 POP POP PUSH2 0x963 JUMP JUMPDEST POP SWAP1 SWAP4 SWAP3 POP POP POP JUMP JUMPDEST PUSH1 0x40 DUP1 MLOAD PUSH1 0x0 DUP1 DUP3 MSTORE PUSH1 0x20 DUP3 ADD SWAP1 SWAP3 MSTORE SWAP1 PUSH2 0xAB8 JUMP JUMPDEST PUSH1 0x40 DUP1 MLOAD DUP1 DUP3 ADD SWAP1 SWAP2 MSTORE PUSH1 0x0 DUP1 DUP3 MSTORE PUSH1 0x20 DUP3 ADD MSTORE DUP2 MSTORE PUSH1 0x20 ADD SWAP1 PUSH1 0x1 SWAP1 SUB SWAP1 DUP2 PUSH2 0xA91 JUMPI SWAP1 POP JUMPDEST POP SWAP3 SWAP2 POP POP JUMP JUMPDEST PUSH2 0xAC7 PUSH2 0xC85 JUMP JUMPDEST CALLER PUSH1 0x0 SWAP1 DUP2 MSTORE PUSH1 0x2 PUSH1 0x20 MSTORE PUSH1 0x40 SWAP1 KECCAK256 SLOAD ISZERO PUSH2 0xB15 JUMPI PUSH1 0x0 PUSH2 0xAE7 CALLER PUSH2 0x76F JUMP JUMPDEST CALLER PUSH1 0x0 SWAP1 DUP2 MSTORE PUSH1 0x2 PUSH1 0x20 MSTORE PUSH1 0x40 DUP2 KECCAK256 PUSH1 0x3 ADD DUP1 SLOAD SWAP3 SWAP4 POP DUP4 SWAP3 SWAP1 SWAP2 SWAP1 PUSH2 0xB0E SWAP1 DUP5 SWAP1 PUSH2 0x108C JUMP JUMPDEST SWAP1 SWAP2 SSTORE POP POP POP JUMPDEST CALLER PUSH1 0x0 SWAP1 DUP2 MSTORE PUSH1 0x2 PUSH1 0x20 MSTORE PUSH1 0x40 DUP2 KECCAK256 DUP1 SLOAD PUSH1 0x1 SWAP3 SWAP1 PUSH2 0xB35 SWAP1 DUP5 SWAP1 PUSH2 0x108C JUMP JUMPDEST SWAP1 SWAP2 SSTORE POP POP CALLER PUSH1 0x0 DUP2 DUP2 MSTORE PUSH1 0x2 PUSH1 0x20 DUP2 DUP2 MSTORE PUSH1 0x40 DUP1 DUP5 KECCAK256 TIMESTAMP DUP2 DUP6 ADD SSTORE DUP2 MLOAD DUP1 DUP4 ADD DUP4 MSTORE DUP7 DUP2 MSTORE DUP1 DUP5 ADD DUP9 DUP2 MSTORE PUSH1 0x1 SWAP3 DUP4 ADD DUP1 SLOAD DUP1 DUP6 ADD DUP3 SSTORE SWAP1 DUP9 MSTORE DUP6 DUP9 KECCAK256 SWAP3 MLOAD SWAP7 MUL SWAP1 SWAP2 ADD DUP1 SLOAD PUSH1 0x1 PUSH1 0x1 PUSH1 0xA0 SHL SUB NOT SWAP1 DUP2 AND PUSH1 0x1 PUSH1 0x1 PUSH1 0xA0 SHL SUB SWAP8 DUP9 AND OR DUP3 SSTORE SWAP2 MLOAD SWAP1 DUP4 ADD SSTORE DUP8 DUP7 MSTORE PUSH1 0x3 SWAP1 SWAP4 MSTORE DUP2 DUP6 KECCAK256 DUP1 SLOAD SWAP1 SWAP4 AND DUP7 OR SWAP1 SWAP3 SSTORE MLOAD PUSH4 0x79212195 PUSH1 0xE1 SHL DUP2 MSTORE PUSH1 0x4 DUP2 ADD SWAP5 SWAP1 SWAP5 MSTORE ADDRESS PUSH1 0x24 DUP6 ADD MSTORE PUSH1 0x44 DUP5 ADD DUP6 SWAP1 MSTORE PUSH1 0x64 DUP5 ADD MSTORE PUSH1 0xA0 PUSH1 0x84 DUP5 ADD MSTORE PUSH1 0xA4 DUP4 ADD SWAP2 SWAP1 SWAP2 MSTORE PUSH32 0x0 AND SWAP1 PUSH4 0xF242432A SWAP1 PUSH1 0xC4 ADD PUSH1 0x0 PUSH1 0x40 MLOAD DUP1 DUP4 SUB DUP2 PUSH1 0x0 DUP8 DUP1 EXTCODESIZE ISZERO DUP1 ISZERO PUSH2 0xC2B JUMPI PUSH1 0x0 DUP1 REVERT JUMPDEST POP GAS CALL ISZERO DUP1 ISZERO PUSH2 0xC3F JUMPI RETURNDATASIZE PUSH1 0x0 DUP1 RETURNDATACOPY RETURNDATASIZE PUSH1 0x0 REVERT JUMPDEST POP POP POP POP PUSH2 0x67F PUSH1 0x1 PUSH1 0x0 SSTORE JUMP JUMPDEST PUSH1 0x1 PUSH1 0x1 PUSH1 0xA0 SHL SUB DUP2 AND PUSH1 0x0 SWAP1 DUP2 MSTORE PUSH1 0x2 PUSH1 0x20 MSTORE PUSH1 0x40 DUP2 KECCAK256 PUSH1 0x3 ADD SLOAD DUP2 SWAP1 PUSH2 0xC74 DUP5 PUSH2 0x76F JUMP JUMPDEST PUSH2 0xC7E SWAP2 SWAP1 PUSH2 0x108C JUMP JUMPDEST SWAP4 SWAP3 POP POP POP JUMP JUMPDEST PUSH1 0x2 PUSH1 0x0 SLOAD SUB PUSH2 0xCD7 JUMPI PUSH1 0x40 MLOAD PUSH3 0x461BCD PUSH1 0xE5 SHL DUP2 MSTORE PUSH1 0x20 PUSH1 0x4 DUP3 ADD MSTORE PUSH1 0x1F PUSH1 0x24 DUP3 ADD MSTORE PUSH32 0x5265656E7472616E637947756172643A207265656E7472616E742063616C6C00 PUSH1 0x44 DUP3 ADD MSTORE PUSH1 0x64 ADD PUSH2 0x3DE JUMP JUMPDEST PUSH1 0x2 PUSH1 0x0 SSTORE JUMP JUMPDEST PUSH1 0x40 DUP1 MLOAD PUSH1 0x1 PUSH1 0x1 PUSH1 0xA0 SHL SUB DUP5 AND PUSH1 0x24 DUP3 ADD MSTORE PUSH1 0x44 DUP1 DUP3 ADD DUP5 SWAP1 MSTORE DUP3 MLOAD DUP1 DUP4 SUB SWAP1 SWAP2 ADD DUP2 MSTORE PUSH1 0x64 SWAP1 SWAP2 ADD SWAP1 SWAP2 MSTORE PUSH1 0x20 DUP2 ADD DUP1 MLOAD PUSH28 0xFFFFFFFFFFFFFFFFFFFFFFFFFFFFFFFFFFFFFFFFFFFFFFFFFFFFFFFF AND PUSH4 0xA9059CBB PUSH1 0xE0 SHL OR SWAP1 MSTORE PUSH2 0xD45 SWAP1 DUP5 SWAP1 PUSH2 0xD4A JUMP JUMPDEST POP POP POP JUMP JUMPDEST PUSH1 0x0 PUSH2 0xD9F DUP3 PUSH1 0x40 MLOAD DUP1 PUSH1 0x40 ADD PUSH1 0x40 MSTORE DUP1 PUSH1 0x20 DUP2 MSTORE PUSH1 0x20 ADD PUSH32 0x5361666545524332303A206C6F772D6C6576656C2063616C6C206661696C6564 DUP2 MSTORE POP DUP6 PUSH1 0x1 PUSH1 0x1 PUSH1 0xA0 SHL SUB AND PUSH2 0xE2F SWAP1 SWAP3 SWAP2 SWAP1 PUSH4 0xFFFFFFFF AND JUMP JUMPDEST DUP1 MLOAD SWAP1 SWAP2 POP ISZERO PUSH2 0xD45 JUMPI DUP1 DUP1 PUSH1 0x20 ADD SWAP1 MLOAD DUP2 ADD SWAP1 PUSH2 0xDBD SWAP2 SWAP1 PUSH2 0x114C JUMP JUMPDEST PUSH2 0xD45 JUMPI PUSH1 0x40 MLOAD PUSH3 0x461BCD PUSH1 0xE5 SHL DUP2 MSTORE PUSH1 0x20 PUSH1 0x4 DUP3 ADD MSTORE PUSH1 0x2A PUSH1 0x24 DUP3 ADD MSTORE PUSH32 0x5361666545524332303A204552433230206F7065726174696F6E20646964206E PUSH1 0x44 DUP3 ADD MSTORE PUSH32 0x6F74207375636365656400000000000000000000000000000000000000000000 PUSH1 0x64 DUP3 ADD MSTORE PUSH1 0x84 ADD PUSH2 0x3DE JUMP JUMPDEST PUSH1 0x60 PUSH2 0x7DB DUP5 DUP5 PUSH1 0x0 DUP6 DUP6 PUSH1 0x0 DUP1 DUP7 PUSH1 0x1 PUSH1 0x1 PUSH1 0xA0 SHL SUB AND DUP6 DUP8 PUSH1 0x40 MLOAD PUSH2 0xE56 SWAP2 SWAP1 PUSH2 0x1192 JUMP JUMPDEST PUSH1 0x0 PUSH1 0x40 MLOAD DUP1 DUP4 SUB DUP2 DUP6 DUP8 GAS CALL SWAP3 POP POP POP RETURNDATASIZE DUP1 PUSH1 0x0 DUP2 EQ PUSH2 0xE93 JUMPI PUSH1 0x40 MLOAD SWAP2 POP PUSH1 0x1F NOT PUSH1 0x3F RETURNDATASIZE ADD AND DUP3 ADD PUSH1 0x40 MSTORE RETURNDATASIZE DUP3 MSTORE RETURNDATASIZE PUSH1 0x0 PUSH1 0x20 DUP5 ADD RETURNDATACOPY PUSH2 0xE98 JUMP JUMPDEST PUSH1 0x60 SWAP2 POP JUMPDEST POP SWAP2 POP SWAP2 POP PUSH2 0xEA9 DUP8 DUP4 DUP4 DUP8 PUSH2 0xEB4 JUMP JUMPDEST SWAP8 SWAP7 POP POP POP POP POP POP POP JUMP JUMPDEST PUSH1 0x60 DUP4 ISZERO PUSH2 0xF23 JUMPI DUP3 MLOAD PUSH1 0x0 SUB PUSH2 0xF1C JUMPI PUSH1 0x1 PUSH1 0x1 PUSH1 0xA0 SHL SUB DUP6 AND EXTCODESIZE PUSH2 0xF1C JUMPI PUSH1 0x40 MLOAD PUSH3 0x461BCD PUSH1 0xE5 SHL DUP2 MSTORE PUSH1 0x20 PUSH1 0x4 DUP3 ADD MSTORE PUSH1 0x1D PUSH1 0x24 DUP3 ADD MSTORE PUSH32 0x416464726573733A2063616C6C20746F206E6F6E2D636F6E7472616374000000 PUSH1 0x44 DUP3 ADD MSTORE PUSH1 0x64 ADD PUSH2 0x3DE JUMP JUMPDEST POP DUP2 PUSH2 0x7DB JUMP JUMPDEST PUSH2 0x7DB DUP4 DUP4 DUP2 MLOAD ISZERO PUSH2 0xF38 JUMPI DUP2 MLOAD DUP1 DUP4 PUSH1 0x20 ADD REVERT JUMPDEST DUP1 PUSH1 0x40 MLOAD PUSH3 0x461BCD PUSH1 0xE5 SHL DUP2 MSTORE PUSH1 0x4 ADD PUSH2 0x3DE SWAP2 SWAP1 PUSH2 0x11AE JUMP JUMPDEST PUSH1 0x0 PUSH1 0x20 DUP3 DUP5 SUB SLT ISZERO PUSH2 0xF64 JUMPI PUSH1 0x0 DUP1 REVERT JUMPDEST DUP2 CALLDATALOAD PUSH1 0x1 PUSH1 0x1 PUSH1 0xA0 SHL SUB DUP2 AND DUP2 EQ PUSH2 0xC7E JUMPI PUSH1 0x0 DUP1 REVERT JUMPDEST PUSH1 0x0 PUSH1 0x20 DUP3 DUP5 SUB SLT ISZERO PUSH2 0xF8D JUMPI PUSH1 0x0 DUP1 REVERT JUMPDEST POP CALLDATALOAD SWAP2 SWAP1 POP JUMP JUMPDEST PUSH1 0x20 DUP1 DUP3 MSTORE DUP3 MLOAD DUP3 DUP3 ADD MSTORE DUP3 DUP2 ADD MLOAD PUSH1 0x80 PUSH1 0x40 DUP5 ADD MSTORE DUP1 MLOAD PUSH1 0xA0 DUP5 ADD DUP2 SWAP1 MSTORE PUSH1 0x0 SWAP3 SWAP2 DUP3 ADD SWAP1 DUP4 SWAP1 PUSH1 0xC0 DUP7 ADD SWAP1 JUMPDEST DUP1 DUP4 LT ISZERO PUSH2 0xFF9 JUMPI DUP4 MLOAD DUP1 MLOAD PUSH1 0x1 PUSH1 0x1 PUSH1 0xA0 SHL SUB AND DUP4 MSTORE PUSH1 0x20 SWAP1 DUP2 ADD MLOAD SWAP1 DUP4 ADD MSTORE PUSH1 0x40 DUP3 ADD SWAP2 POP DUP5 DUP5 ADD SWAP4 POP PUSH1 0x1 DUP4 ADD SWAP3 POP PUSH2 0xFC2 JUMP JUMPDEST POP PUSH1 0x40 DUP8 ADD MLOAD PUSH1 0x60 DUP8 ADD MSTORE PUSH1 0x60 DUP8 ADD MLOAD PUSH1 0x80 DUP8 ADD MSTORE DUP1 SWAP5 POP POP POP POP POP SWAP3 SWAP2 POP POP JUMP JUMPDEST PUSH1 0x20 DUP1 DUP3 MSTORE DUP3 MLOAD DUP3 DUP3 ADD DUP2 SWAP1 MSTORE PUSH1 0x0 SWAP2 SWAP1 DUP5 DUP3 ADD SWAP1 PUSH1 0x40 DUP6 ADD SWAP1 DUP5 JUMPDEST DUP2 DUP2 LT ISZERO PUSH2 0x106A JUMPI DUP4 MLOAD DUP1 MLOAD PUSH1 0x1 PUSH1 0x1 PUSH1 0xA0 SHL SUB AND DUP5 MSTORE PUSH1 0x20 SWAP1 DUP2 ADD MLOAD SWAP1 DUP5 ADD MSTORE PUSH1 0x40 DUP4 ADD SWAP4 DUP6 ADD SWAP4 SWAP3 POP PUSH1 0x1 ADD PUSH2 0x1037 JUMP JUMPDEST POP SWAP1 SWAP7 SWAP6 POP POP POP POP POP POP JUMP JUMPDEST PUSH4 0x4E487B71 PUSH1 0xE0 SHL PUSH1 0x0 MSTORE PUSH1 0x11 PUSH1 0x4 MSTORE PUSH1 0x24 PUSH1 0x0 REVERT JUMPDEST DUP1 DUP3 ADD DUP1 DUP3 GT ISZERO PUSH2 0x109F JUMPI PUSH2 0x109F PUSH2 0x1076 JUMP JUMPDEST SWAP3 SWAP2 POP POP JUMP JUMPDEST DUP2 DUP2 SUB DUP2 DUP2 GT ISZERO PUSH2 0x109F JUMPI PUSH2 0x109F PUSH2 0x1076 JUMP JUMPDEST PUSH4 0x4E487B71 PUSH1 0xE0 SHL PUSH1 0x0 MSTORE PUSH1 0x32 PUSH1 0x4 MSTORE PUSH1 0x24 PUSH1 0x0 REVERT JUMPDEST PUSH4 0x4E487B71 PUSH1 0xE0 SHL PUSH1 0x0 MSTORE PUSH1 0x31 PUSH1 0x4 MSTORE PUSH1 0x24 PUSH1 0x0 REVERT JUMPDEST PUSH1 0x0 PUSH1 0x1 DUP3 ADD PUSH2 0x10F6 JUMPI PUSH2 0x10F6 PUSH2 0x1076 JUMP JUMPDEST POP PUSH1 0x1 ADD SWAP1 JUMP JUMPDEST DUP1 DUP3 MUL DUP2 ISZERO DUP3 DUP3 DIV DUP5 EQ OR PUSH2 0x109F JUMPI PUSH2 0x109F PUSH2 0x1076 JUMP JUMPDEST PUSH1 0x0 DUP3 PUSH2 0x1131 JUMPI PUSH4 0x4E487B71 PUSH1 0xE0 SHL PUSH1 0x0 MSTORE PUSH1 0x12 PUSH1 0x4 MSTORE PUSH1 0x24 PUSH1 0x0 REVERT JUMPDEST POP DIV SWAP1 JUMP JUMPDEST PUSH4 0x4E487B71 PUSH1 0xE0 SHL PUSH1 0x0 MSTORE PUSH1 0x41 PUSH1 0x4 MSTORE PUSH1 0x24 PUSH1 0x0 REVERT JUMPDEST PUSH1 0x0 PUSH1 0x20 DUP3 DUP5 SUB SLT ISZERO PUSH2 0x115E JUMPI PUSH1 0x0 DUP1 REVERT JUMPDEST DUP2 MLOAD DUP1 ISZERO ISZERO DUP2 EQ PUSH2 0xC7E JUMPI PUSH1 0x0 DUP1 REVERT JUMPDEST PUSH1 0x0 JUMPDEST DUP4 DUP2 LT ISZERO PUSH2 0x1189 JUMPI DUP2 DUP2 ADD MLOAD DUP4 DUP3 ADD MSTORE PUSH1 0x20 ADD PUSH2 0x1171 JUMP JUMPDEST POP POP PUSH1 0x0 SWAP2 ADD MSTORE JUMP JUMPDEST PUSH1 0x0 DUP3 MLOAD PUSH2 0x11A4 DUP2 DUP5 PUSH1 0x20 DUP8 ADD PUSH2 0x116E JUMP JUMPDEST SWAP2 SWAP1 SWAP2 ADD SWAP3 SWAP2 POP POP JUMP JUMPDEST PUSH1 0x20 DUP2 MSTORE PUSH1 0x0 DUP3 MLOAD DUP1 PUSH1 0x20 DUP5 ADD MSTORE PUSH2 0x11CD DUP2 PUSH1 0x40 DUP6 ADD PUSH1 0x20 DUP8 ADD PUSH2 0x116E JUMP JUMPDEST PUSH1 0x1F ADD PUSH1 0x1F NOT AND SWAP2 SWAP1 SWAP2 ADD PUSH1 0x40 ADD SWAP3 SWAP2 POP POP JUMP INVALID LOG2 PUSH5 0x6970667358 0x22 SLT KECCAK256 DUP10 0xAE PUSH13 0x199A9C9A7184FD1244BBE95F7D 0xC6 PUSH29 0x759AF761A86A32347C099D3E22DD64736F6C6343000811003300000000 "
    },
    "gasEstimates": {
      "creation": {
        "codeDepositCost": "926200",
        "executionCost": "infinite",
        "totalCost": "infinite"
      },
      "external": {
        "availableRewards(address)": "infinite",
        "calculateRewards(address)": "infinite",
        "claimRewards()": "infinite",
        "getStakeTokens(address)": "infinite",
        "getStakerAddress(uint256)": "2567",
        "getStakerAmountStaked(address)": "2515",
        "getStakerInfo(address)": "infinite",
        "getStakerTimeOfLastUpdate(address)": "2547",
        "getStakerUnclaimRewards(address)": "2542",
        "nftCollection()": "infinite",
        "rewardsPerHour()": "2373",
        "rewardsToken()": "infinite",
        "setRewardsPerHour(uint256)": "22379",
        "stake(uint256)": "infinite",
        "stakerAddress(uint256)": "2544",
        "stakers(address)": "6782",
        "unstake(uint256)": "infinite"
      }
    },
    "methodIdentifiers": {
      "availableRewards(address)": "f854a27f",
      "calculateRewards(address)": "64ab8675",
      "claimRewards()": "372500ab",
      "getStakeTokens(address)": "a466bc03",
      "getStakerAddress(uint256)": "62a82d7d",
      "getStakerAmountStaked(address)": "2c616319",
      "getStakerInfo(address)": "733bdef0",
      "getStakerTimeOfLastUpdate(address)": "ca11a379",
      "getStakerUnclaimRewards(address)": "9262c4d0",
      "nftCollection()": "6588103b",
      "rewardsPerHour()": "8e7271fa",
      "rewardsToken()": "d1af0c7d",
      "setRewardsPerHour(uint256)": "b5a5e509",
      "stake(uint256)": "a694fc3a",
      "stakerAddress(uint256)": "94067045",
      "stakers(address)": "9168ae72",
      "unstake(uint256)": "2e17de78"
    }
  },
  "storageLayout": {
    "storage": [
      {
        "astId": 610,
        "contract": "NFTStaking.sol:NFTStack",
        "label": "_status",
        "offset": 0,
        "slot": "0",
        "type": "t_uint256"
      },
      {
        "astId": 54,
        "contract": "NFTStaking.sol:NFTStack",
        "label": "rewardsPerHour",
        "offset": 0,
        "slot": "1",
        "type": "t_uint256"
      },
      {
        "astId": 59,
        "contract": "NFTStaking.sol:NFTStack",
        "label": "stakers",
        "offset": 0,
        "slot": "2",
        "type": "t_mapping(t_address,t_struct(Staker)51_storage)"
      },
      {
        "astId": 63,
        "contract": "NFTStaking.sol:NFTStack",
        "label": "stakerAddress",
        "offset": 0,
        "slot": "3",
        "type": "t_mapping(t_uint256,t_address)"
      }
    ],
    "types": {
      "t_address": {
        "encoding": "inplace",
        "label": "address",
        "numberOfBytes": "20"
      },
      "t_array(t_struct(StakedToken)40_storage)dyn_storage": {
        "base": "t_struct(StakedToken)40_storage",
        "encoding": "dynamic_array",
        "label": "struct NFTStack.StakedToken[]",
        "numberOfBytes": "32"
      },
      "t_mapping(t_address,t_struct(Staker)51_storage)": {
        "encoding": "mapping",
        "key": "t_address",
        "label": "mapping(address => struct NFTStack.Staker)",
        "numberOfBytes": "32",
        "value": "t_struct(Staker)51_storage"
      },
      "t_mapping(t_uint256,t_address)": {
        "encoding": "mapping",
        "key": "t_uint256",
        "label": "mapping(uint256 => address)",
        "numberOfBytes": "32",
        "value": "t_address"
      },
      "t_struct(StakedToken)40_storage": {
        "encoding": "inplace",
        "label": "struct NFTStack.StakedToken",
        "members": [
          {
            "astId": 37,
            "contract": "NFTStaking.sol:NFTStack",
            "label": "staker",
            "offset": 0,
            "slot": "0",
            "type": "t_address"
          },
          {
            "astId": 39,
            "contract": "NFTStaking.sol:NFTStack",
            "label": "tokenId",
            "offset": 0,
            "slot": "1",
            "type": "t_uint256"
          }
        ],
        "numberOfBytes": "64"
      },
      "t_struct(Staker)51_storage": {
        "encoding": "inplace",
        "label": "struct NFTStack.Staker",
        "members": [
          {
            "astId": 42,
            "contract": "NFTStaking.sol:NFTStack",
            "label": "amountStaked",
            "offset": 0,
            "slot": "0",
            "type": "t_uint256"
          },
          {
            "astId": 46,
            "contract": "NFTStaking.sol:NFTStack",
            "label": "stakedTokens",
            "offset": 0,
            "slot": "1",
            "type": "t_array(t_struct(StakedToken)40_storage)dyn_storage"
          },
          {
            "astId": 48,
            "contract": "NFTStaking.sol:NFTStack",
            "label": "timeOfLastUpdate",
            "offset": 0,
            "slot": "2",
            "type": "t_uint256"
          },
          {
            "astId": 50,
            "contract": "NFTStaking.sol:NFTStack",
            "label": "unclaimReawrds",
            "offset": 0,
            "slot": "3",
            "type": "t_uint256"
          }
        ],
        "numberOfBytes": "128"
      },
      "t_uint256": {
        "encoding": "inplace",
        "label": "uint256",
        "numberOfBytes": "32"
      }
    }
  },
  "userdoc": {
    "kind": "user",
    "methods": {},
    "version": 1
  }
}